:100000000C9467020C948F020C948F020C946C2356
:100010000C946C230C946C230C948F020C948F0220
:100020000C948F020C94100B0C948F020C948F0282
:100030000C948F020C948F020C948F020C948F02FC
:100040000C94FD240C948F020C943A230C941423EA
:100050000C948F020C948F020C948F020C948F02DC
:100060000C9416140C948F0241540D0A0041542B29
:10007000434C54533D313B26570D0A0053544152D3
:10008000542047534D200041542B434D47523D00CF
:1000900041542B434D47463D310D0061742B636D38
:1000A0006764613D2264656C20616C6C220A0D00FE
:1000B00041542B435041530D0A004154480D0A004E
:1000C00048414E47005741544348444F4720544508
:1000D00053540056594348204E4153544156204FE3
:1000E0004B00564F4C414E492E2E2E0020202020F2
:1000F000202020200041542B4353510D0A00434837
:100100005942412047534D210041542B434F5053F6
:100110003F0D0A0061742B63636C6B3F0D0A006135
:10012000742B63636C6B3F0D0A00005EBCE2613FA1
:10013000DD83C29C7E20A3FD1F419DC3217FFCA2C5
:10014000401E5F01E3BD3E6082DC237D9FC1421CF7
:10015000FEA0E1BF5D0380DE3C62BEE0025CDF81A9
:10016000633D7C22C09E1D43A1FF4618FAA4277957
:100170009BC584DA3866E5BB5907DB856739BAE485
:1001800006581947A5FB7826C49A653BD987045AB7
:10019000B8E6A7F91B45C6987A24F8A6441A99C769
:1001A000257B3A6486D85B05E7B98CD2306EEDB317
:1001B000510F4E10F2AC2F7193CD114FADF3702E45
:1001C000CC92D38D6F31B2EC0E50AFF1134DCE9077
:1001D000722C6D33D18F0C52B0EE326C8ED0530D29
:1001E000EFB1F0AE4C1291CF2D73CA947628ABF5D7
:1001F00017490856B4EA6937D58B5709EBB5366805
:100200008AD495CB2977F4AA4816E9B7550B88D636
:10021000346A2B7597C94A14F6A8742AC896154BE8
:10022000A9F7B6E80A54D7896B350000000024000E
:1002300027002A0000000008000201000003040754
:1002400000000000000000000400000000000000AA
:10025000005205D000040000000000000000560518
:10026000C800020F270000E80300002501D80000A5
:100270000300000000000000B703DC0006E70300F5
:100280000019FCFFFFAF03680006E703000019FC3C
:10029000FFFFB303640047534D2054454C204349AE
:1002A000534C4F0000000100480247534D2050526C
:1002B0004544564F4C4241202B0001005502475304
:1002C0004D204B4F440000000000000000000100E2
:1002D000620247534D2052455A494D00000000002C
:1002E000000001006F025445504C204E495A4B41CA
:1002F00020205B435D0001007C025445504C205699
:1003000059534F4B41205B435D0001008902D202EB
:10031000BE02AA029602FA02E602565943484F5A12
:1003200049204E415354415621000200370847539B
:100330004D2D3E0000000000000000000000000401
:100340000E035445535420564F4C414E4921000052
:100350000000020079065659535452204E4153541E
:1003600041562D3E000000021603560342032E03A1
:100370001A033B0D0A004154440043414C4C000019
:10038000000000250028002B0000000000230026AC
:10039000002900040404040404040402020202020A
:1003A0000203030303030301020408102040800139
:1003B0000204081020010204081020526F6F74001C
:1003C000000000000000000000000000046A0300BC
:1003D000407A10F35A00A0724E18090010A5D4E814
:1003E0000000E87648170000E40B54020000CA9AA7
:1003F0003B000000E1F505000080969800000040F9
:10040000420F000000A0860100000010270000003D
:1004100000E803000000006400000000000A000083
:100420000000000100000000002C76D888DC674F37
:100430000823DFC1DFAE59E1B1B796E5E3E453C667
:100440003AE651997696E8E6C28426EB898C9B625F
:10045000ED407C6FFCEFBC9C9F40F2BAA56FA5F409
:1004600090055A2AF75C936B6CF9676DC11BFCE031
:10047000E40D47FEF520E6B500D0ED902E03009484
:100480003577050080841E080000204E0A00000019
:10049000C80C333333330F986E12831141EF8D2123
:1004A00014893BE65516CFFEE6DB18D1844B381B8A
:1004B000F77C1D901DA4BBE424203284725E22814F
:1004C00000C9F124ECA1E53D2700C42EB62E11246D
:1004D0001FBECFEFD8E0DEBFCDBF12E0A0E0B1E09D
:1004E000E4E1F3E702C005900D92A434B107D9F717
:1004F00025E0A4E4B2E001C01D92A13FB207E1F7FC
:1005000012E0C6E6D2E004C02197FE010E94453108
:10051000C536D107C9F70E9447250C947D390C9444
:100520000000DC01ED91FC910284F385E02D41E0B7
:10053000099581E090E0089508950895DC0126E092
:10054000629FA00DB11D112490965C934E935F970E
:1005500021E091962C939197FC01E459FF4F208163
:1005600031960190F081E02D222331F0309749F04F
:10057000611107C0DC0102C0309719F05C968C91C4
:100580000994089508950895CF92DF92EF92FF9213
:100590000F931F93CF93DF938C0181E090E002C013
:1005A000880F991F6A95E2F7E801C358DF4F44238B
:1005B00029F028813981822B932B06C08095909554
:1005C000288139818223932399838883C880D980A5
:1005D000F801E558FF4F808178019FE6E90EF11C94
:1005E00091E09093BE028093BB021092BC021092E5
:1005F000BD02D701ED91FC910190F081E02D6C2DB1
:10060000C7010995F801E458FF4F8081823048F016
:10061000D701ED91FC910190F081E02D6D2DC70186
:10062000099561E0C7010E944913C882D982DF9110
:10063000CF911F910F91FF90EF90DF90CF90089591
:10064000CF92DF92EF92FF920F931F93CF93DF939E
:1006500001E010E002C0000F111F6A95E2F77C0173
:100660002FE6E20EF11C6C01ECE7CE0ED11CF60178
:10067000408150E03197608170E0C7010E94A5136E
:10068000C7010E94C411EC01F6018081823040F064
:10069000C7010E94C41120E030E0382FC22BD32BB9
:1006A000C023D12381E090E0C017D10711F080E092
:1006B00090E0DF91CF911F910F91FF90EF90DF902D
:1006C000CF9008956F927F928F929F92AF92BF9238
:1006D000CF92DF92EF92FF921F93CF93DF931F92FF
:1006E000CDB7DEB73C01162FFC0186E0689FE00D18
:1006F000F11D112411A2878D90A181309105F9F08F
:100700001CF4892B51F04FC082309105B1F1039751
:1007100009F049C040E050E034C0442309F443C02C
:1007200041E050E0C3010E949E020E94F124F301C7
:10073000E85AFF4F608371838283938334C0498377
:100740000E94F124F301E85AFF4FC080D180E2807B
:10075000F3804B015C018C189D08AE08BF087296AF
:1007600080819181A0E0B0E0498188159905AA05B2
:10077000BB0518F442E050E004C0411114C043E04E
:1007800050E0612FC3010F90DF91CF911F91FF9037
:10079000EF90DF90CF90BF90AF909F908F907F9021
:1007A0006F900C949E020F90DF91CF911F91FF905C
:1007B000EF90DF90CF90BF90AF909F908F907F9001
:1007C0006F9008952F923F924F925F926F927F9217
:1007D0008F929F92AF92BF92CF92DF92EF92FF9251
:1007E0000F931F93CF93DF93CDB7DEB72A970FB642
:1007F000F894DEBF0FBECDBF9A8789870E94F1248F
:1008000029853A85245A3F4F3A832983D9010D918E
:100810001D912D913C91AB01BC01401B510B620B12
:10082000730BE985FA85E859FF4F80819181A0E03B
:10083000B0E010E084179507A607B70708F05FC17E
:1008400069847A84F6E66F0E711CE984FA8422E6E4
:10085000E20EF11CD3018C911817A0F4E985FA85FA
:1008600080819181F701A081B181A10FB11DFC01AF
:100870002081318142E06C9189859A85F901099541
:100880001F5FE8CF10E029843A84B7E62B0E311CB5
:10089000E984FA84E4E6EE0EF11C812C912C5401DB
:1008A000839429853A852E593F4F3C832B83F10150
:1008B0008081181708F08DC0C12ED12CA985BA856A
:1008C0008D919C91F701A081B181AC0DBD1DFC0102
:1008D0002081318141E06C9189859A85F9010995E2
:1008E000A985BA858D919C91F701A081B181AC0D4C
:1008F000BD1DFC012281338140E06C9189859A8580
:10090000F9010995D501C401012E04C0880F991F72
:10091000AA1FBB1F0A94D2F7AC019C012095309509
:1009200000E0F3018081A985BA85ED91FC9108175B
:1009300070F5802F90E0AB81BC816D917C912C0192
:10094000DB01A40DB51D0480F581E02D6C91898536
:100950009A852F8338874D835E830995440C551CF7
:100960002F8138854D815E81E985FA85E40DF51D7D
:10097000892B29F480859185842B952B04C0808553
:10098000918582239323918780870F5FCACFD701F8
:100990008D919C91DC01AC0DBD1D0280F381E02D99
:1009A00041E06C9189859A850995A985BA85ED9173
:1009B000FC91D7018D919C91DC01AC0DBD1D019086
:1009C000F081E02D40E06C9189859A8509951F5F43
:1009D0006ECFE984FA84FCE1EF0EF11C89859A85DB
:1009E000885A9F4FF7012FEF3FEF43815481452BEA
:1009F00021F410823283218315823696E817F90795
:100A0000A1F7B12CC984DA8420E6C20ED11C86E09D
:100A1000A82EF3018081B81608F059C0912C0985E1
:100A20001A850B0D111D0B0D111D085F1F4FD101F4
:100A30008C91981608F049C0D8014D915C91092C11
:100A400002C0569547950A94E2F741705527B89E23
:100A5000C0011124890D911DD601ED91FC91E80F83
:100A6000F91FA081E985FA8560E0258D368D28176C
:100A7000390721F4417089859A851CC06F5F3696CD
:100A80006A3099F7452BF9F0F70160E070E02081BA
:100A9000211113C0A69EF001A79EF00D11242985F7
:100AA0003A85E20FF31FA48F968F858F10A2178EC1
:100AB00041E0C9010E94620306C06F5F7F4F369616
:100AC0006A30710521F79394B2CFB394A2CFE98530
:100AD000FA85B19689859A85835A9F4F10E02081C7
:100AE000211111E03696E817F907C9F70E94F124A1
:100AF000A981BA816D937D938D939C931397812FD8
:100B00002A960FB6F894DEBF0FBECDBFDF91CF910E
:100B10001F910F91FF90EF90DF90CF90BF90AF901B
:100B20009F908F907F906F905F904F903F902F900D
:100B30000895862F0C946A1D862F642F0C94931DA4
:100B4000862F642F0C94C31DDC01ED91FC9102846F
:100B5000F385E02D40E00994DC01ED91FC910084E7
:100B6000F185E02D6FEF0994CF92DF92EF92FF9223
:100B70000F931F93CF93DF9300D0CDB7DEB78C01D7
:100B8000790189E395E04A8369830E94AC05698114
:100B90004A81842F0E9460246801C601801B910B4A
:100BA0008E159F056CF4F60161916F018FED860F34
:100BB0008E3508F060E289E395E00E949102EDCF66
:100BC0000F900F90DF91CF911F910F91FF90EF90B9
:100BD000DF90CF90089561E00E94A4058BE39FE130
:100BE0000197F1F708950F931F93CF93DF93EC01D3
:100BF000423018F08C8188608C834F836887222371
:100C000029F0413019F48C8184608C8364E670E0B3
:100C100080E090E00E94FF1D6C8164FD31C0E8819E
:100C2000F9810284F385E02D42E063E0CE0109956D
:100C30008BE496E40197F1F7E881F9810284F3856A
:100C4000E02D42E063E0CE01099503E512E0C80122
:100C50000197F1F7E881F9810284F385E02D42E004
:100C600063E0CE010995C8010197F1F7E881F981A8
:100C70000284F385E02D42E062E0CE01099517C0C1
:100C80006062CE010E94A4058BE496E40197F1F71F
:100C90006C816062CE010E94A40503E512E0C801E8
:100CA0000197F1F76C816062CE010E94A405C80132
:100CB0000197F1F76C816062CE010E94A4058BEE72
:100CC00090E00197F1F784E08D836CE0CE010E9403
:100CD000A405CE010E94EB0582E08E8366E0CE0182
:100CE0000E94A405CE01DF91CF911F910F910C942A
:100CF000AC0589E395E00E94EB0560E080E00E948E
:100D0000602462EE70E089E395E00E94AD210E94CC
:100D1000262468EE73E080E090E00C94FF1DFC0157
:100D200023812223D1F09181909569236083828170
:100D300091E09093BE028093BB021092BC0210928D
:100D4000BD0285E594E00E94421261E085E594E0F1
:100D50000E944913282F30E002C020E030E081E0FB
:100D600090E0232B11F080E090E00895FF920F9324
:100D70001F93CF93DF93EC01162F042FF22E8B8558
:100D8000888B85E594E00E94F013888991E0909328
:100D9000BE028093BB021092BC021092BD0261E0C1
:100DA00085E594E00E94491391E0811190E0998BD0
:100DB000992329F085E594E00E94C4118E878989E2
:100DC000882339F01F861C8260E0CE010E960E94B7
:100DD0008F062F2D402F612FCE01DF91CF911F91D4
:100DE0000F91FF900C94F3056CEE70E089E395E0B1
:100DF0000C94AD2160E080E00E9460248091790233
:100E00008A3028F460E389E395E00E94A6214091AE
:100E1000790250E060E070E02AE089E395E00E940A
:100E2000E62180914802882311F06AE301C060E264
:100E300089E395E00E94A621809178028A3028F407
:100E400060E389E395E00E94A6214091780250E09A
:100E500060E070E02AE089E395E00E94E62160E22C
:100E600089E395E00E94A6218091B505811104C017
:100E70008091A305882321F080914802882329F0DE
:100E800089E395E00E94AC050BC0E0913905F09133
:100E90003A050084F185E02D60E089E395E009954D
:100EA00060E086E00E9460248091B405882319F0F8
:100EB00068EF71E009C08091A205882319F06BEFFB
:100EC00071E002C06EEF71E089E395E00E941223A9
:100ED00060E289E395E00E94A62160E289E395E063
:100EE0000E94A62160E088E00E94602460E289E31D
:100EF00095E00E94A62160916E0270916F02809130
:100F00007002909171020E942A326D597F4F673CA6
:100F1000710528F460E289E395E00E94A6216091C2
:100F20006E0270916F0280917002909171020E9426
:100F30002A32675F7F4F6331710528F460E289E3ED
:100F400095E00E94A62120E030E0A90160916E02A8
:100F500070916F0280917002909171020E946032D4
:100F600018162CF46BE289E395E00E94A6214091CB
:100F70006E0250916F02609170027091710222E0D6
:100F800089E395E00E942F2261E080E00E946024C6
:100F9000E0915A05F0915B058085882311F061E2AC
:100FA00002C060910C0189E395E00E94A6210E9495
:100FB000F40661E082E00E94602480917A0223E0DE
:100FC000829FC00111240A972CF460E289E395E026
:100FD0000E94A62140917A0283E0489FA00111243B
:100FE000052E000C660B770B89E395E00E94030F3A
:100FF00065E289E395E00E94A62161E086E00E9417
:1010000060246BE772E089E395E00E9412230E945E
:10101000F4060C94F40680E090E0A8ECB2E480932F
:10102000B3039093B403A093B503B093B6031092A7
:10103000AF031092B0031092B1031092B20344E0D8
:1010400063EB73E084E690E00E94311744E06FEABE
:1010500073E088E690E00E94311782E08093B70346
:1010600041E067EB73E08CED90E00C9431170E9447
:101070000B0889E395E00E94EB0560E080E00E94A8
:10108000602463ED70E089E395E00E94AD2168EE95
:1010900073E080E090E00C94FF1DEF92FF920F93BD
:1010A0001F93CF93DF9300D0CDB7DEB78C017B01C8
:1010B00042E0BE016F5F7F4F80EE90E00E940A1712
:1010C00029813A8121503109203231051CF43A83BB
:1010D000298302C01A82198260E270E09B01201B02
:1010E000310B89819A81820F931F0E940F319A835D
:1010F000898300E010E0B701600F711F89819A8138
:1011000024E0880F991F2A95E1F78C519F4F41E009
:10111000800F911F0E940A170F5F1F4F00311105AA
:1011200051F7F701108A0F900F90DF91CF911F9127
:101130000F91FF90EF900895CF92DF92EF92FF9280
:101140000F931F93CF93DF9300D0CDB7DEB78C0101
:10115000F62E8091520590915305A0915405B091BF
:101160005505892B8A2B8B2B71F081E368130BC0FB
:10117000442349F08091B703833019F40E94350F5E
:1011800002C00E9426248091760268018A3048F4C9
:10119000EFEFCE1ADE0A4AE0B80180E090E00E944C
:1011A0001135809176024AE0B60190E00E94113537
:1011B0008FE2F8018283B8016D5F7F4F80917502E5
:1011C0008A3040F44AE080E090E00E941135C80186
:1011D0000496BC01809175024AE090E00E941135AE
:1011E00080E2F8018583B8016A5F7F4F80917902C0
:1011F0008A3040F44AE080E090E00E941135C80156
:101200000796BC01809179024AE090E00E94113576
:101210008AE3F8018087B801675F7F4F8091780289
:101220008A3040F44AE080E090E00E941135C80125
:101230000A96BC01809178024AE090E00E94113544
:1012400080E2F8018387F78642E0BE016F5F7F4F3F
:1012500080EE90E00E940A1789819A81809714F0AD
:101260001A821982E12CF12CB8016E0D7F1D898143
:101270009A8124E0880F991F2A95E1F78C519F4F9E
:1012800041E08E0D9F1D0E943117FFEFEF1AFF0AFC
:1012900080E1E816F10441F789819A81019660E2C4
:1012A00070E00E940F319A83898342E0BE016F5F34
:1012B0007F4F80EE90E00E94311789819A810F90D4
:1012C0000F90DF91CF911F910F91FF90EF90DF90E2
:1012D000CF900895CF93DF93EC010E94E2038E85B7
:1012E0009F858130910589F18230910581F18430AB
:1012F000910579F1089779F18C859D85813091056B
:1013000061F18230910559F18430910551F10897CE
:1013100051F18A859B858130910539F182309105A3
:1013200031F18430910529F1089729F18885998553
:101330008130910511F18230910509F184309105D8
:1013400001F1089701F180E01FC08AE21DC080E32F
:101350001BC083E219C084E417C087E315C088E38B
:1013600013C089E311C083E40FC084E30DC085E39B
:101370000BC086E309C082E407C081E305C082E3B5
:1013800003C083E301C081E4DF91CF910895CF9240
:10139000DF92EF92FF920F931F93CF93DF93EC01B5
:1013A0000E94E203888580FF23C083FF13C020E0F2
:1013B00042E060E189E395E00E94B60667E971E0EA
:1013C00089E395E00E94122368EE73E080E090E0EC
:1013D0000E94FF1D888582FF0BC089E395E00E9473
:1013E000EB0565EC70E089E395E00E94AD21FFCF4D
:1013F000888599858E0101581F4F892B61F48A8554
:101400009B85892B41F48C859D85892B21F48E85C4
:101410009F85892BA1F1F80180819181A281B381FF
:10142000892B8A2B8B2B39F40E94F124F8016083DD
:10143000718382839383F801C080D180E280F3803E
:10144000F4EFCF0EF1E0DF1EE11CF11C0E94F1244D
:101450006C157D058E059F05B8F4F801C080D1801C
:10146000E280F380F8ECCF0ED11CE11CF11C0E944D
:10147000F124C616D706E806F90630F410C0F801C4
:101480001082118212821382CE01DF91CF911F91BF
:101490000F91FF90EF90DF90CF900C946A0980E05D
:1014A000DF91CF911F910F91FF90EF90DF90CF9040
:1014B0000895FC01E35BFF4F808191810E94C70981
:1014C000813461F0823469F0843471F0833279F0D0
:1014D0008A3281F0082E000C990B089583E090E089
:1014E000089584E090E0089581E090E0089582E01E
:1014F00090E0089585E090E008958F929F92AF92DA
:10150000BF92CF92DF92EF92FF921F93CF93DF9320
:10151000EC01662361F11889112369F18C819D81A9
:10152000AE81BF81892B8A2B8B2B31F40E94F12451
:101530006C837D838E839F83CC84DD84EE84FF84E3
:101540000E94F1248C809D80AE80BF80DC01CB01A5
:1015500088199909AA09BB09C816D906EA06FB0623
:1015600050F4188A1C821D821E821F8205C01C82B4
:101570001D821E821F8210E0812FDF91CF911F916B
:10158000FF90EF90DF90CF90BF90AF909F908F90A3
:101590000895CF92DF92EF92FF920F931F93CF9314
:1015A000DF93EC01662371F1888981112FC0888156
:1015B0009981AA81BB81892B8A2B8B2B31F40E94C4
:1015C000F124688379838A839B83C884D984EA84DD
:1015D000FB840E94F124088119812A813B81DC016E
:1015E000CB01801B910BA20BB30BC816D906EA06E0
:1015F000FB0660F481E0888B898B188219821A823D
:101600001B8205C0188219821A821B8280E0DF913A
:10161000CF911F910F91FF90EF90DF90CF900895A1
:101620001F920F920FB60F9211242F933F934F9357
:101630005F936F937F938F939F93AF93BF93EF933A
:10164000FF93809172028093B20080916304909125
:101650006404019690936404809363048091610410
:1016600090916204892BC1F180916A0290916B0282
:10167000A0916C02B0916D020197A109B10980930C
:101680006A0290936B02A0936C02B0936D028091FA
:101690006A0290916B02A0916C02B0916D021816D3
:1016A00019061A061B06C4F080916902181644F444
:1016B0008091630490916404873E93400CF484C04D
:1016C0008091690287FF08C080916304909164044F
:1016D000181619060CF498C0809163049091640464
:1016E000883E93400CF4B0C01092640410926304DE
:1016F000809177028F5F80937702809177028C339D
:1017000008F4A2C010927702809178028F5F8093D4
:101710007802809178028C3308F496C01092780297
:10172000809179028F5F809379028091790288316C
:1017300008F48AC010927902809176028F5F8093BC
:101740007602809175028230C9F420917302309143
:101750007402C90183709927892B39F4C90164E6A1
:1017600070E00E940F31892B81F4C90160E971E0BA
:101770000E940F31892B49F08CE108C0E09175027D
:10178000F0E0E150FF4F808101C08DE19091760241
:10179000891708F059C091E0909376028091750204
:1017A0008F5F80937502809175028D3008F44CC074
:1017B00090937502809173029091740201969093B8
:1017C00074028093730240C02091610430916204DE
:1017D000032E000C440B550B60E07FE28DE090E09F
:1017E0000E94233120936A0230936B0240936C0273
:1017F00050936D02809163049091640401969093DC
:101800006404809363045CCF20916104309162048E
:10181000032E000C440B550B60E07FE28DE090E05E
:101820000E94233120936A0230936B0240936C0232
:1018300050936D028091630490916404019790939A
:1018400064048093630448CFFF91EF91BF91AF91FF
:101850009F918F917F916F915F914F913F912F91C8
:101860000F900FBE0F901F901895E0E7F0E0808179
:101870008E7F80838081897F8083E6EBF0E08081AA
:101880008F7D8083E1EBF0E08081846080838081C4
:101890008C7F8083A0EBB0E08C918C7F8C938081D7
:1018A000877F808386E08093720208958F929F9253
:1018B000AF92BF92CF92DF92EF92FF920F931F935E
:1018C000CF93DF93CDB7DEB762970FB6F894DEBF44
:1018D0000FBECDBFA8956FE171E087EB95E00E9448
:1018E000AD2166E775E0CE0101960E944415BE0168
:1018F0006F5F7F4F88E795E00E943E20CE01019602
:101900000E94DD2061E072E0CE0101960E94FC2081
:10191000BE016F5F7F4F88E795E00E9424208C0115
:10192000CE0101960E94DD200F3F1F4F61F062E360
:1019300070E080E090E00E94FF1D64E171E087EBC1
:1019400095E00E94AD2161E072E0CE0101960E9417
:10195000FC20BE016F5F7F4F88E795E00E94242046
:101960008C01CE0101960E94DD200F3F8FEF1807FA
:1019700009F0DDC067E272E0CE0107960E94FC200C
:1019800080917C0590917D052B853C857C01E21A38
:10199000F30A2115310561F1009751F18217930780
:1019A00038F1E816F90620F07C0121E0E21AF1088E
:1019B0008090780590907905AF80B884C401CC24DC
:1019C000CA94DD24DA9484010E0D1F1D081719072F
:1019D00070F0B5010E94A034009749F09C012819CD
:1019E0003909E216F30608F069010196EFCF860186
:1019F00067E272E0CE0101960E94FC20BE016F5F9B
:101A00007F4F88E795E00E942420980121503109FA
:101A1000AC014F5F5F4F68E775E0CE010D960E9405
:101A20001121BE01635F7F4F88E795E00E943E2051
:101A3000CE010D960E94DD20CE0101960E94DD2090
:101A4000CE0107960E94DD2022E030E040E050E029
:101A500068E775E0CE0101960E941121CE01019642
:101A60000E9419207B01CE0101960E94DD2025E015
:101A700030E043E050E068E775E0CE0101960E9457
:101A80001121CE0101960E941920D62ECE01019679
:101A90000E94DD2028E030E046E050E068E775E095
:101AA000CE0101960E941121CE0101960E941920BB
:101AB000C62ECE0101960E94DD202BE030E049E0E9
:101AC00050E068E775E0CE0101960E941121CE0139
:101AD00001960E941920962ECE0101960E94DD20CB
:101AE0002EE030E04CE050E068E775E0CE01019672
:101AF0000E941121CE0101960E941920A62ECE012E
:101B000001960E94DD2021E130E04FE050E068E7DF
:101B100075E0CE0101960E941121CE0101960E942E
:101B20001920B62ECE0101960E94DD2002C0E12CC4
:101B3000F12C68E775E0CE0101960E94E2200D814C
:101B40001E810115110519F410929B0210C00F316E
:101B5000110510F00FE110E069817A81A8018BE98D
:101B600092E00E948634F801E556FD4F1082CE01C6
:101B700001960E94DD20809170008E7F809370001E
:101B80008FB78F778FBF1092B60587E1891558F010
:101B90002BE32A1540F02B1530F090927902A09299
:101BA0007802B09277028FEF8C0D8F3170F48FEF47
:101BB0008D0D8C3050F4F7FC08C0C0927602D092A4
:101BC0007502F0927402E092730286EB95E00E9437
:101BD000350C109264041092630480917202809319
:101BE000B200809170008160809370008FB7806830
:101BF0008FBF81E08093B605A89569E071E087EB1F
:101C000095E00E94AD2166E775E0CE0101960E9445
:101C10004415BE016F5F7F4F88E795E00E943E202C
:101C2000CE0101960E94DD2065E072E0CE010196B2
:101C30000E94FC20BE016F5F7F4F88E795E00E9405
:101C400024208C01CE0101960E94DD200F3F1F4F02
:101C500009F443C082E20E949A240196F1F41886A6
:101C60001F821A8619861C861B866AE070E0CE01E8
:101C700007960E948320811105C0CE0107960E941D
:101C8000AA2031C08AE090E09C878B876EEF70E0DD
:101C90008F8198850E940A3526C082E20E949A248C
:101CA0008C0165E072E0CE0101960E94FC20BE012D
:101CB0006F5F7F4F88E795E00E942420AC01445F6E
:101CC0005F4F980168E775E0CE0107960E941121E9
:101CD000CE0101960E94DD2006C063E472E0CE01D1
:101CE00007960E94FC200B851C850115110519F42F
:101CF00010927B0210C00F31110510F00FE110E0BF
:101D00006F817885A8018BE792E00E948634F80104
:101D1000E558FD4F1082CE0107960E94DD20A89560
:101D200010927A0265EF70E087EB95E00E94AD219A
:101D300066E775E0CE0101960E944415BE016F5F13
:101D40007F4F88E795E00E943E20CE0101960E94D9
:101D5000DD206DE072E0CE0101960E94FC20BE0104
:101D60006F5F7F4F88E795E00E9424208C01CE01B1
:101D700001960E94DD200F3F1F4F01F18CE20E946F
:101D80009A248C016DE072E0CE0101960E94FC2045
:101D9000BE016F5F7F4F88E795E00E942420AC0171
:101DA0004A5F5F4F980168E775E0CE0107960E9491
:101DB0001121CE0101960E94DD2006C063E472E08D
:101DC000CE0107960E94FC20CE0107960E941920A2
:101DD00060937A02CE0107960E94DD20A89580E0EC
:101DE00062960FB6F894DEBF0FBECDBFDF91CF91E4
:101DF0001F910F91FF90EF90DF90CF90BF90AF9029
:101E00009F908F900895CF92DF92EF92FF920F9361
:101E10001F93CF93DF9377FF1DC06A017B01EC0115
:101E20006DE20E94A6218C0144275527BA014C1966
:101E30005D096E097F092AE0CE010E94E621800F2C
:101E4000911FDF91CF911F910F91FF90EF90DF9045
:101E5000CF9008952AE0DF91CF911F910F91FF90CD
:101E6000EF90DF90CF900C94E621EF92FF920F93CA
:101E70001F93CF93DF93CDB7DEB767970FB6F89474
:101E8000DEBF0FBECDBF0E94022400915A05109103
:101E90005B0564E172E087EB95E00E941223B801D4
:101EA000CE0101960E944415780182E0E80EF11CF3
:101EB000BE016F5F7F4FC7010E947720CE01019660
:101EC0000E94DD206FE172E087EB95E00E94122313
:101ED00062E675E087EB95E00E94122369E272E00A
:101EE00087EB95E00E941223B801CE0101960E9473
:101EF0004415BE016F5F7F4FC7010E947720CE015E
:101F000001960E94DD206AE087EB95E00E94A62101
:101F10008091B405882359F068EF71E087EB95E074
:101F20000E9412236AE087EB95E00E94A62180912F
:101F3000A205882359F06BEF71E087EB95E00E94D2
:101F400012236AE087EB95E00E94A6216AE087EB06
:101F500095E00E94A62162EF71E087EB95E00E9478
:101F6000122340916E0250916F0260917002709145
:101F7000710222E087EB95E00E942F226AE087EB56
:101F800095E00E94A62165EF71E087EB95E00E9445
:101F900012234091B70350E060E070E087EB95E0DA
:101FA0000E94030F62E472E087EB95E00E94122327
:101FB00000E010E062E472E087EB95E00E941223FB
:101FC000BE016F5F7F4FC8010E944D08BE016F5F69
:101FD0007F4F87EB95E00E9412230F5F1F4F053064
:101FE000110541F7A89500915A0510915B056AE229
:101FF00072E087EB95E00E94122364E670E080E0D7
:1020000090E00E94FF1D6AE187EB95E00E94A62107
:10201000B801CE0142960E944415BE016E5E7F4F0C
:10202000C80102960E947720CE0142960E94DD20D0
:102030006CE272E0CE0142960E94FC20CE014296F4
:102040000E94DD2081E067960FB6F894DEBF0FBED8
:10205000CDBFDF91CF911F910F91FF90EF90089529
:1020600060E084E00E94931D68EE73E080E090E001
:102070000E94FF1D61E084E00C94931DEF92FF929B
:102080000F931F93CF93DF937C018B01CFE7D5E0B4
:102090008D819E810E943F16B7018D819E810E9495
:1020A000D21540E06EEB8D819E810E9490158D814E
:1020B0009E810E942316F80180838D819E810E945B
:1020C0002316F80181838D819E810E942316F801D9
:1020D00082838D819E810E942316F80183838D81E6
:1020E0009E810E942316F80184838D819E810E9427
:1020F0002316F80185838D819E810E942316F801A5
:1021000086838D819E810E942316F80187838D81AD
:102110009E810E942316F80180878D819E81DF9128
:10212000CF911F910F91FF90EF900C943F164F921B
:102130005F926F927F928F929F92AF92BF92CF9257
:10214000DF92EF92FF92CF93DF93CDB7DEB7619727
:102150000FB6F894DEBF0FBECDBFE0918405F091BD
:102160008505138615861486DF011B96CF0103961D
:102170001E92A817B907E1F7BE01665F7F4FCF0136
:102180000E947516882329F067E0CE010A960E9406
:102190008315BE016F5F7F4FCE010A960E943E10ED
:1021A00068E0CE0101960E948315998589138FC03E
:1021B00039812A81832F90E0922B2A852232F1F1F6
:1021C000A8F5203109F090C0F884BC017595679599
:1021D000072E000C880B990B0E94F93720E030E0A5
:1021E00040E85EE30E944B314B015C018F2D90E093
:1021F0002F81821B9109BC01990F880B990B0E94BA
:10220000F9372B013C016F2D70E080E090E00E94D7
:10221000F7379B01AC01C301B2010E94B8319B01A9
:10222000AC01C501B4010E944C313EC0283231F0EE
:102230002B3309F059C030FD51C01CC02D812F3304
:10224000B1F1A0F42F3109F04FC0BC0133E0759516
:1022500067953A95E1F7072E000C880B990B0E94C1
:10226000F93720E030E040E05FE31CC02F3569F033
:102270002F37D1F5BC01990F880B990B0E94F937C4
:1022800020E030E040E85DE30DC0BC017595679546
:10229000072E000C880B990B0E94F93720E030E0E4
:1022A00040E05EE30E9458386B017C011DC0BC0118
:1022B0007595679575956795072E000C880B990B9A
:1022C0000E94F93720E030E040E85EE3EBCFC12C1C
:1022D000D12C9EEFE92E92ECF92E06C0C12CD12C08
:1022E00080ECE82E8FE7F82EC701B60161960FB695
:1022F000F894DEBF0FBECDBFDF91CF91FF90EF907E
:10230000DF90CF90BF90AF909F908F907F906F9015
:102310005F904F90089580918405909185050E946B
:102320003F1640E06CEC80918405909185050E94F9
:10233000901540917F0564E4809184059091850516
:102340000E949015809181058823E9F08091800595
:102350008A3049F08B3061F0893079F46EE570E0B5
:1023600080E090E00EC06CEB70E080E090E009C08F
:1023700067E771E080E090E004C06EEE72E080E01C
:1023800090E00C94FF1D089590916E0380916D0371
:10239000981750F4E92FF0E0E35BFC4F208130E028
:1023A0009F5F90936E0302C02FEF3FEFC901089526
:1023B00080916D0390E020916E03821B9109089536
:1023C00085ED8093BC008091BC0084FDFCCF109211
:1023D0002C0308954091E102262F30E0240F311D97
:1023E00021323105DCF420912C032430C9F4FC01A6
:1023F00080E090E0861758F43091E1022191DC01F1
:10240000A154BD4FA30FB11D2C930196F3CF809122
:10241000E102680F6093E10280E0089581E0089591
:1024200082E00895CF92DF92EF92FF920F931F9375
:10243000CF93DF937C01262F972F8A018091BE02D4
:10244000882391F0C62FD72F6E01C40ED51ECC1550
:10245000DD0571F06991D701ED91FC910190F0815A
:10246000E02DC7010995F3CF642F822F0E94EA1156
:10247000C801DF91CF911F910F91FF90EF90DF90F6
:10248000CF900895CF93DF931F92CDB7DEB76983C6
:102490002091BE022223D1F02091BD02203240F0D3
:1024A00021E030E0FC013383228380E090E015C01E
:1024B0008091BC02E82FF0E0E35DFC4F99819083AE
:1024C0008F5F8093BC028093BD0205C061E0CE01A6
:1024D00001960E94EA1181E090E00F90DF91CF9188
:1024E0000895FC0190810180F281E02D892F809573
:1024F00060FF12C0F8942281822382838181892B1C
:102500008183A3E2B0E01197F1F78281982B928347
:10251000789487ED90E011C0F89422818223828321
:102520008181892B8183AFEFB0E01197F1F7828130
:10253000982B928378948FE090E00197F1F70895BB
:1025400021E001C0220F6A95EAF7DC011C962C936A
:102550001C971A965C934E931997ED91FC91008409
:10256000F185E02D60E00994EF92FF920F931F93A5
:10257000CF93DF937C018C01C0E0D0E0F801868925
:102580000E946A1D892B51F42696CC0FDD1FCC0FBB
:10259000DD1FCE0DDF1D8881998108C021960C5F5B
:1025A0001F4FC530D10551F780E090E0DF91CF910A
:1025B0001F910F91FF90EF900895EF92FF920F936C
:1025C0001F93CF938C01FC01759684E0C0E060FFFF
:1025D00002C09081C92B6695815031968111F7CF49
:1025E000413011F4F8014489F8018585C82BC42BCA
:1025F0007801FEE0EF0EF11CF80162896C2BC70137
:102600000E948F06F801628960956C23C701CF9103
:102610001F910F91FF90EF900C948F060F931F93D3
:10262000CF93DF93062F0F70423019F440E0602FF4
:1026300010C0142F262FEC0130E0B90184E075950D
:1026400067958A95E1F7CE010E94DD12412F602F38
:10265000CE01DF91CF911F910F910C94DD12FC01FF
:1026600084858823A9F0218532852115310519F447
:10267000611106C007C02130310521F4611102C08B
:10268000858701C015866585CF010E960C948F064F
:1026900008952091BD029091BB02213208F049C0FB
:1026A00080912C038111FCCF32E030932C03609396
:1026B0002B033FEF30932A03109229032093280322
:1026C000ADE2B3E048E053E0FA013E2F341B32178D
:1026D00018F43D913193F9CF10920703209107032D
:1026E000990F922B9093070390910603913061F418
:1026F00010920603909107039093BB009091BC0049
:1027000093FDF8CF95EC01C095EE9093BC009091AD
:102710002C039230E1F390912A039F3F79F080914E
:102720002A03803241F080912A03803331F084E023
:1027300005C081E003C082E001C083E01092BC02CA
:102740001092BD021092BE02089580912C03811157
:10275000FCCF842F413208F080E291E090932C036B
:1027600090932B032FEF20932A0310922903280F15
:10277000209328039093070390910703660F692B1A
:102780006093070390910603913061F41092060361
:10279000909107039093BB009091BC0093FDF8CFFC
:1027A00095EC01C095EE9093BC0090912C03913074
:1027B000E1F390912903981710F480912903A8E080
:1027C000B3E02DE433E0F9019E2F921B981718F423
:1027D0009D919193F9CF10926E0380936D030895AC
:1027E00010926E0310926D031092BC021092BD0203
:1027F00010922C0381E080932B031092060361E07A
:1028000082E10E94931D61E083E10E94931DE9EB48
:10281000F0E080818E7F808380818D7F808388E45B
:102820008093B80085E48093BC0008951F920F92B6
:102830000FB60F9211242F933F934F935F936F9393
:102840007F938F939F93AF93BF93EF93FF93809169
:10285000B900887F803609F49CC068F5883209F495
:102860005BC090F4803109F454C038F4882309F433
:10287000F6C0883009F44DC0F6C0883109F44CC068
:10288000803209F45DC0EFC0803409F468C048F4B8
:10289000803309F455C0883309F0E5C080932A03DA
:1028A000D8C0803509F44FC0883509F45DC088343C
:1028B00009F0D9C0D6C0883909F4C7C0A8F4883750
:1028C00009F467C038F4883609F463C0803709F426
:1028D00060C0C9C0883809F4B8C0803909F45FC045
:1028E000803809F0C0C05BC0803B09F486C038F472
:1028F000803A09F466C0883A09F47FC0B4C0803CCD
:1029000009F4A7C0883C09F4A4C0883B09F48AC034
:10291000AAC08091070310C09091290380912803D9
:10292000981770F5E091290381E08E0F80932903B9
:10293000F0E0E85FFC4F80818093BB0085EC86C0AF
:1029400080932A038EC0E091290381E08E0F80934B
:1029500029038091BB00F0E0E85FFC4F80839091F9
:102960002903809128036EC0E091290381E08E0F36
:10297000809329038091BB00F0E0E85FFC4F8083E7
:1029800080912B0381116DC081E08093060384EA5E
:1029900061C083E080932C0310920503CFCF809118
:1029A0000503803208F051C0E091050381E08E0FED
:1029B000809305038091BB00F0E0EB51FD4F8083D5
:1029C000BDCF85EC8093BC0010922C038091050351
:1029D000803230F4E0910503F0E0EB51FD4F1082BE
:1029E0006091050370E0E091E302F091E40285EE6E
:1029F00092E009951092050336C084E080932C0381
:102A00001092E2021092E102E091DF02F091E00206
:102A100009958091E102811105C081E08093E10276
:102A20001092BF02E091E20281E08E0F8093E202F9
:102A3000F0E0E154FD4F80818093BB009091E20271
:102A40008091E102981708F479CF85E88093BC0063
:102A50000AC085EC8093BC0010922C0304C0109235
:102A60002A030E94E011FF91EF91BF91AF919F91D6
:102A70008F917F916F915F914F913F912F910F9027
:102A80000FBE0F901F9018950F931F93CF93DF9356
:102A90008C01EB018885882331F06EEB71E0C80171
:102AA0000E94FC202AC01982188287EB95E00E94C0
:102AB0009E1F28813981892B81F4203A8FE03807C5
:102AC00064F46DE070E080E090E00E94FF1D88817A
:102AD0009981019699838883E8CF293D3E4014F07F
:102AE00081E0888787EB95E00E949E1F892B29F063
:102AF00067EB75E0C8010E946621C801DF91CF91A4
:102B00001F910F910895DC01E0E0615038F08D9144
:102B1000E827F0E0E65DFE4FE491F7CF8E2F0895B1
:102B2000CF92DF92EF92FF920F931F93CF93DF9399
:102B30001F92CDB7DEB76C01E62E08E010E0FF244F
:102B4000F39461E08F2D8E2109F460E0C601498382
:102B50000E947112FF0C01501109498101151105E4
:102B600081F7411115C0F894D6011196ED91FC91B1
:102B7000129791818C918095892381831196ED9193
:102B8000FC91129792818C9180958923828378940D
:102B90000F90DF91CF911F910F91FF90EF90DF90F9
:102BA000CF900895CF92DF92EF92FF920F931F93F1
:102BB000CF93DF931F92CDB7DEB78C01F62E40E0A6
:102BC00065E579830E949015CF2C7981D72E760107
:102BD00088E0E80EF11CF60161916F0140E0C80148
:102BE0000E949015CE14DF04B1F70F90DF91CF91C2
:102BF0001F910F91FF90EF90DF90CF900895FC010F
:102C000090810180F281E02DF8948181892B81836C
:102C10002281892F809528232283A7E0B0E0119795
:102C2000F1F7218182238183A3E2B0E01197F1F7CC
:102C300080817894EFECF0E03197F1F7982381E010
:102C400009F480E00895EF92FF920F931F93CF93C2
:102C5000DF937C0108E010E0C0E0D1E0C7010E94F2
:102C6000FF158111CD2BDD0F01501109B9F78C2F04
:102C7000DF91CF911F910F91FF90EF900895FC018C
:102C800090810180F281E02DF8948181292F209597
:102C90008223818378948DE743E050E0815021F1D5
:102CA000DA011197F1F730813923C1F3F894828169
:102CB000822382838181892B81837894ABE7B7E07B
:102CC0001197F1F7F894818128232183A3E1B1E0E2
:102CD0001197F1F78081982381E009F080E07894E2
:102CE000E3E6F6E03197F1F70895AF92BF92CF9205
:102CF000DF92EF92FF920F931F93CF93DF931F9278
:102D0000CDB7DEB75C01E62ED72EFC01858581119B
:102D10005DC0C5010E943F16811105C0F5011386F3
:102D2000158614866BC040E060EFC5010E949015C7
:102D300001E0F12CC12C11E0C5010E94FF15682FA4
:102D4000C50169830E94FF156981613019F48130E2
:102D5000B9F433C04F2D50E068131BC0F5018385D3
:102D6000181730F4E40FF51F8381802349F402C063
:102D7000181731F060E0193058F4F501148708C0D5
:102D8000F501EF0DF11D8381802B838361E009C084
:102D9000C12EF501E40FF51F9381802F80958923C3
:102DA0008383C5010E9471121F5F000F11F4F39419
:102DB00001E0F7E0FF1508F0BFCF113438F0F5015E
:102DC000C386C11015C081E0858712C0F501138646
:102DD0001586148680E0D5011396EE2DFD2D950104
:102DE000255F3F4F9D919193A217B307D9F706C076
:102DF000F5018381882351F381E0EDCF0F90DF91BE
:102E0000CF911F910F91FF90EF90DF90CF90BF90E7
:102E1000AF900895CF92DF92FF920F931F93CF93BD
:102E2000DF931F92CDB7DEB78C010D5F1F4FF62EDB
:102E30006B018C2D8F19841758F4C80149830E94A7
:102E40001639F60181936F010F5F1F4F4981F1CF52
:102E50000F90DF91CF911F910F91FF90DF90CF9056
:102E60000895CF92DF92FF920F931F93CF93DF933A
:102E70001F92CDB7DEB78C010D5F1F4FF62E6B0191
:102E80008C2D8F19841758F4F60161916F01C801D8
:102E900049830E941E390F5F1F4F4981F1CF60E0C7
:102EA00080E090E00F90DF91CF911F910F91FF9004
:102EB000DF90CF900C941E39CF93DF931F92CDB744
:102EC000DEB769830B96FC0185919491009731F0F0
:102ED00041E0BE016F5F7F4F0E9431170F90DF917D
:102EE000CF910895E0919204F0919304309709F006
:102EF00009940895833081F028F4813099F082306C
:102F0000A1F008958730A9F08830B9F08430D1F469
:102F1000809180008F7D03C0809180008F778093A7
:102F20008000089584B58F7702C084B58F7D84BDFD
:102F300008958091B0008F7703C08091B0008F7D9D
:102F40008093B00008951F93CF93DF93182FD92F4C
:102F5000C62F40E150E060E270E086E994E00E9414
:102F60006F34E12FFD2FEC0FF11DEC0FF11D65917A
:102F700074916F5F7F4F4FE050E086E994E00E94CC
:102F8000013520E130E040E050E061E070E086E9AA
:102F900094E0DF91CF911F910C9472170F931F93C0
:102FA000CF938C01C62F40E150E060E270E086E9EB
:102FB00094E00E946F34C730D9F1C830D9F1C11103
:102FC00007C0F80180814AE066E974E090E013C030
:102FD000C13049F44AE066E974E0F80180819181EA
:102FE0000E94113535C0C23049F44AE066E974E008
:102FF000F801808191810E9462352AC0C33059F462
:10300000F80160817181828193812AE046E954E070
:103010000E941C351DC0C43079F4F80160817181B3
:10302000828193812AE046E954E00E94403510C035
:1030300022E003C023E001C021E042E0420FF8019A
:10304000608171818281938106E914E00E94BA3423
:1030500020E130E040E050E061E070E086E994E09B
:10306000CF911F910F910C94721740E150E060E2F4
:1030700070E086E994E00E946F348091A80481306A
:1030800039F48FE49EE6909397048093960409C0E8
:103090008FE496E6A6E68093960490939704A09317
:1030A000980420E130E040E050E061E070E086E923
:1030B00094E00C947217CF93DF93CDB7DEB72997C6
:1030C0000FB6F894DEBF0FBECDBFFC0120812031CA
:1030D00021F1BE016F5F7F4F0E943E1068E0CE017C
:1030E00001960E9483159985891315C08D818F33B0
:1030F00059F018F48F3189F009C08F3519F08F37E6
:1031000041F004C08BE00AC08AE008C0807F803FA5
:1031100011F48CE003C080E001C089E029960FB66D
:10312000F894DEBF0FBECDBFDF91CF910895CF924F
:10313000DF92EF92FF920F931F93CF93DF93FC01E7
:103140007196C491C1503196C590D490E62EF12C61
:10315000F701EE0FFF1FEC0DFD1D859194919093EB
:1031600072048093710400E010E0D0E040E150E090
:1031700060E270E086E994E00E946F3421E030E084
:1031800040E050E00115110529F460E070E081E3B2
:1031900092E004C061E070E08FEF91E00E9472174E
:1031A000F801EE0DFF1DCE17DF0764F0EE0FFF1FD5
:1031B000EC0DFD1D6591749140E150E086E994E0CD
:1031C0000E94013520E130E041E050E0B80186E99D
:1031D00094E00E9472170130110519F001E010E02F
:1031E000C5CFDF91CF911F910F91FF90EF90DF90AE
:1031F000CF9008950F931F93CF93DF93EC01FC01C1
:1032000070961491113009F098C010936E0440E14B
:1032100050E0BC0186E994E00E94013520E130E0F5
:1032200040E050E060E070E086E994E00E947217B0
:10323000FE01729685919491FC0164913996A59155
:10324000B491611104C08C918093A8046FC08FEF7A
:10325000860F823040F48D919C9111979093AE042B
:103260008093AD0463C08DEF860F823070F40D91B2
:103270001D912D913C9113970093A9041093AA04DA
:103280002093AB043093AC0451C0693031F5FD019B
:103290003396C591D491FD0185919491FC01808173
:1032A000FD013296A4919E0160E090E09A1761F0D2
:1032B000F90145915491FA014491481301C0692FD5
:1032C0009F5F2E5F3F4FF2CF6093A804CE01DF9146
:1032D000CF911F910F910C94A3176A30D1F4FD0187
:1032E0003196C591D491FD01A491888190E002C0EE
:1032F00095958795AA95E2F780FF03C01093A804DF
:1033000002C01092A804DF91CF911F910F910C94ED
:1033100035180D911D912D913C9113970093AF0499
:103320001093B0042093B1043093B204CD01DF9127
:10333000CF911F910F910C94CE17111134C06111D0
:103340002EC020917304309174048217930739F1D1
:103350008091770490917804892B79F08091790499
:1033600090917A04892B61F080917B0490917C0488
:10337000892B79F482E090E005C080E090E002C003
:1033800081E090E0880F991FFC01E958FB4F3183E1
:103390002083D0937404C0937304109291046091BD
:1033A0009104CE0114C01230D9F46296FE018591C9
:1033B0009491009711F0FC01099580916D04882388
:1033C00061F0609191048091730490917404DF9195
:1033D000CF911F910F910C94971881E08093700406
:1033E000DF91CF911F910F9108954F925F926F924D
:1033F0007F928F929F92AF92BF92CF92DF92EF9285
:10340000FF920F931F93CF93DF93CDB7DEB76497EF
:103410000FB6F894DEBF0FBECDBF042F4296FC015D
:1034200085919491FC011491359645905590659045
:103430007490FC0131962591359145915491298BD9
:103440003A8B4B8B5C8B643009F424C3633008F0F7
:1034500051C241E0613009F440E0193029F5FC0126
:10346000399625913491F9013296949131962591AE
:103470003491EFEFE90F9091A804442339F09111B2
:1034800003C0E093A8040AC0915006C09E1303C075
:103490001092A80403C09F5F9093A8046091A804B1
:1034A000C9010E94A317FFC21A3059F481E090911C
:1034B000A804913009F480E08093A8040E94351894
:1034C000F2C2442319F08FEF9FEF02C081E090E039
:1034D0002091A6043091A704829F5001839FB00CD5
:1034E000929FB00C1124B5010B2C000C880B990B8A
:1034F0000E94F937163029F420E030E040E251E430
:103500000DC0173029F420E030E048EC52E406C04A
:10351000183031F420E030E04AE754E40E94B8313A
:10352000C988DA88EB88FC882DEF200F2230B8F4A8
:103530001092B3049B01AC016091AF047091B00490
:103540008091B1049091B2040E944C316093AF0419
:103550007093B0048093B1049093B2041DC00334FF
:10356000C9F41092AF041092B0041092B1041092FA
:10357000B2041092A9041092AA041092AB04109203
:10358000AC041092AE041092AD041092A804A12CC9
:10359000B12CC8C0A12CB12C00530A3008F0C2C015
:1035A0008091B304823008F442C08091A804880F4F
:1035B000982F990F990F890F8093A8042091AD043B
:1035C0003091AE044AE0429FC001439F900D112408
:1035D0009093AE048093AD042091A9043091AA0485
:1035E0004091AB045091AC04AAE0B0E00E942C39A9
:1035F0006093A9047093AA048093AB049093AC04E5
:1036000020E030E040E251E46091AF047091B004FA
:103610008091B1049091B2040E9458386093AF0435
:103620007093B0048093B1049093B20418C08130B9
:10363000B1F41092A9041092AA041092AB04109253
:10364000AC041092AE041092AD041092A804109233
:10365000AF041092B0041092B1041092B2048091A1
:10366000A804800F8093A8048091AD049091AE04CB
:10367000800F911D9093AE048093AD048091A904B6
:103680009091AA04A091AB04B091AC04800F911D5D
:10369000A11DB11D8093A9049093AA04A093AB042B
:1036A000B093AC04163061F4602F000F770B880BD9
:1036B000990B0E94F93720E030E040E251E40DC060
:1036C000173011F5602F000F770B880B990B0E94B4
:1036D000F93720E030E048EC52E40E94B8319B0119
:1036E000AC016091AF047091B0048091B1049091ED
:1036F000B2040E944C316093AF047093B004809385
:10370000B1049093B204AAC0183061F4602F000F86
:10371000770B880B990B0E94F93720E030E04AE7DD
:1037200054E4DBCF111123C08091A8048A0D411409
:1037300051046104710429F4C114D104E104F104B9
:1037400089F090E0A0E0B0E0C816D906EA06FB06D2
:1037500014F4898907C084159505A605B70514F4E6
:10376000D301C2018093A80488EA94E0BFC011305D
:1037700011F0123099F58091AD049091AE048A0D4C
:103780009B1D4114510461047104E1F4C114D1047E
:10379000E104F104B9F49093AE048093AD040FC03A
:1037A0006C017D0184159505A605B70514F4730118
:1037B00062019C2D8D2D9093AD048093AE048DEA13
:1037C00094E094C0092E000CAA0BBB0BC816D906B6
:1037D000EA06FB062CF799898A89EDCF133011F0A0
:1037E0001430E1F5A501BB0C660B770B8091A904A1
:1037F0009091AA04A091AB04B091AC04840F951FE2
:10380000A61FB71F411451046104710471F4C1145F
:10381000D104E104F10449F48093A9049093AA042B
:10382000A093AB04B093AC0416C0C816D906EA0640
:10383000FB064CF06C017D0184159505A605B705C6
:1038400014F473016201C092A904D092AA04E09218
:10385000AB04F092AC0489EA94E048C041145104EE
:103860006104710429F4C114D104E104F104E1F10B
:103870008090AF049090B004A090B104B090B204D6
:10388000C701B6010E94F937D62EE72EF82E092F70
:10389000262F372F482F592FB401C5010E946032BF
:1038A0001816B4F0C301B2010E94F937D62EE72EE4
:1038B000F82E092F262F372F482F592FB401C50175
:1038C0000E94F23787FD04C0D82CE92CFA2C0B2D6E
:1038D0008D2D9E2DAF2DB02F8093AF049093B0040B
:1038E000A093B104B093B2048FEA94E0612F0E94D8
:1038F000CE17D9C0633009F0D6C0FC013996A59126
:10390000B491193099F4FD01339625913491409189
:10391000A804F901E40FF11DE40FF11D6591749104
:10392000FB016491FD01A591B4912AC01A3021F5E3
:10393000FD01319665917491FD01A4912091A80437
:10394000FB01B081222349F041E050E001C0440F67
:10395000AA95EAF74B2B40830AC021E030E001C072
:10396000220FAA95EAF720952B23FB012083FB0168
:1039700060810E945C178EC0111104C06091A80480
:103980006C93F7CF1230A1F42091AD043091AE04C6
:103990002D933C93388B2F87FC013B968591949116
:1039A000009709F477C042E0BE01615F7F4F70C0AD
:1039B0001130A1F42091AD043091AE042D933C93CD
:1039C0003E872D87FC013B9685919491009709F4E1
:1039D00061C042E0BE01635F7F4F5AC01430E9F41A
:1039E0004091A9045091AA046091AB047091AC0479
:1039F0004D935D936D937C93139749875A876B879B
:103A00007C87FC013B9685919491009709F442C014
:103A100044E0BE01675F7F4F3BC01330E1F440914B
:103A2000A9045091AA046091AB047091AC044D9329
:103A30005D936D937C9313974D835E836F8378873B
:103A4000FC013B9685919491009721F144E0BE01E1
:103A50006B5F7F4F1DC01530E8F04091AF0450916F
:103A6000B0046091B1047091B2044D935D936D9375
:103A70007C93139749835A836B837C83FC013B9629
:103A800085919491009731F044E0BE016F5F7F4FC4
:103A90000E94311710926E0461E08091730490913E
:103AA00074040E94FA1864960FB6F894DEBF0FBE35
:103AB000CDBFDF91CF911F910F91FF90EF90DF90DD
:103AC000CF90BF90AF909F908F907F906F905F90BE
:103AD0004F900895CF93DF93282F30E0F901EC5CED
:103AE000FD4F8491F901E955FC4FD491F901ED5650
:103AF000FC4FC491CC2391F081110E947A17EC2FD6
:103B0000F0E0EE0FFF1FE757FC4FA591B491EC9149
:103B1000ED2381E090E021F480E002C080E090E0BD
:103B2000DF91CF9108951F93CF93DF93282F30E03B
:103B3000F901EC5CFD4F8491F901E955FC4FD491FA
:103B4000F901ED56FC4FC491CC23C9F0162F811119
:103B50000E947A17EC2FF0E0EE0FFF1FE158FC4FA8
:103B6000A591B4918FB7F894111105C09C91ED2FD8
:103B7000E095E92302C0EC91ED2BEC938FBFDF9130
:103B8000CF911F910895CF93DF9390E0FC01E95509
:103B9000FC4F2491FC01ED56FC4F8491882361F188
:103BA00090E0880F991FFC01E65DFD4FC591D4910F
:103BB000FC01E158FC4FA591B491611109C09FB778
:103BC000F8948881209582238883EC912E230BC062
:103BD000623061F49FB7F8943881822F80958323F7
:103BE0008883EC912E2B2C939FBF06C08FB7F8943F
:103BF000E8812E2B28838FBFDF91CF9108958F927C
:103C00009F92AF92BF92CF92DF92EF92FF926B01A1
:103C10007C010E94CC244B015C01C114D104E1045D
:103C2000F104F1F00E94CC24DC01CB018819990940
:103C3000AA09BB09883E9340A105B10570F321E0B4
:103C4000C21AD108E108F10888EE880E83E0981EB8
:103C5000A11CB11CC114D104E104F10419F7DDCF9A
:103C6000FF90EF90DF90CF90BF90AF909F908F909C
:103C700008950895CF92DF92EF92FF920F931F93D2
:103C8000CF93DF936C017A018B01C0E0D0E0CE15B9
:103C9000DF0589F0D8016D918D01D601ED91FC9180
:103CA0000190F081E02DC6010995892B11F47E0168
:103CB00002C02196ECCFC701DF91CF911F910F91E8
:103CC000FF90EF90DF90CF900895FC01918D828D51
:103CD000981761F0828DDF01A80FB11D5D968C9160
:103CE000928D9F5F9F73928F90E008958FEF9FEF6B
:103CF0000895FC01918D828D981731F0828DE80F27
:103D0000F11D858D90E008958FEF9FEF0895FC01E0
:103D1000918D228D892F90E0805C9F4F821B9109AD
:103D20008F739927089588EB93E00E94871E21E006
:103D3000892B09F420E0822F0895FC01848DDF0196
:103D4000A80FB11DA35ABF4F2C91848D90E001960E
:103D50008F739927848FA689B7892C93A089B189FD
:103D60008C9180648C93938D848D981306C0028807
:103D7000F389E02D80818F7D80830895EF92FF92FB
:103D80000F931F93CF93DF93EC0181E0888F9B8D7E
:103D90008C8D981305C0E889F989808185FD24C040
:103DA000F62E0B8D10E00F5F1F4F0F731127E02EC3
:103DB0008C8DE8120CC00FB607FCFACFE889F989A0
:103DC000808185FFF5CFCE010E949D1EF1CF8B8DA6
:103DD000FE01E80FF11DE35AFF4FF0820B8FEA89D5
:103DE000FB898081806207C0EE89FF896083E88952
:103DF000F98980818064808381E090E0DF91CF91B8
:103E00001F910F91FF90EF900895CF93DF93EC01F6
:103E1000888D8823C9F0EA89FB89808185FD05C0EA
:103E2000A889B9898C9186FD0FC00FB607FCF5CF24
:103E3000808185FFF2CFA889B9898C9185FFEDCF6C
:103E4000CE010E949D1EE7CFDF91CF91089580E0C3
:103E500090E0892B29F00E94931E81110C940000A0
:103E6000089520914602309147022817390771F4CE
:103E70009091440280914502981741F0E0914402EC
:103E8000F0E0E159FC4F808190E008958FEF9FEFC3
:103E9000089508951F93CF93DF93DC015C962D91D5
:103EA0003C915D972115310539F481E090E013963E
:103EB0009C938E9312973DC05196ED91FC91529731
:103EC00050969C915097892F80951FB75E964C9184
:103ED0005E9741FB772770F941FD6095F89440812A
:103EE000772311F0492B01C048234083E901219732
:103EF000F1F748E0508160FF02C0592B01C0582300
:103F00005083E9012197F1F76695415099F777239E
:103F100021F090818923808303C08081982B908336
:103F20001FBF5C968D919C915D970197F1F721E001
:103F300030E0C901DF91CF911F9108952091460291
:103F4000309147022817390771F48091450220917A
:103F5000440290E0805C9F4F821B910960E470E016
:103F60000E940F31089580E090E00895209146026C
:103F70003091470228173907B9F490914402809193
:103F80004502981789F0E0914402F0E0E159FC4FB6
:103F900080812091440230E02F5F3F4F2F73332701
:103FA0002093440290E008958FEF9FEF08950895C5
:103FB000E0916E0380916D03E81730F4F0E0E35B6D
:103FC000FC4F808190E008958FEF9FEF08950E944D
:103FD00061340F931F93CF93DF93EC010E94F12480
:103FE000688779878A879B87E881F9810680F781CE
:103FF000E02DCE01099597FF17C00E94F124088596
:1040000019852A853B85DC01CB01801B910BA20B16
:10401000B30B0C811D812E813F8180179107A20770
:10402000B30710F38FEF9FEFDF91CF911F910F91A7
:104030000895FC0180819181009711F00C94DA348D
:1040400060E070E0CB010895CF93DF93FC01248101
:104050003581232B71F0FB01DC01CD91DC91608176
:104060007181CE010E94A034009719F08C1B9D0B2A
:1040700002C08FEF9FEFDF91CF9108950F931F93B1
:10408000CF93DF938C01EB01FC018081918100973C
:10409000B1F0688179816115710579F042815381B0
:1040A0002C813D814217530740F00E947F348C8160
:1040B0009D81F8019583848313C00E94FF3288811B
:1040C0009981F801918380838A819B819383828384
:1040D0008C819D8195838483198218821B821A8228
:1040E0001D821C82DF91CF911F910F910895CF9374
:1040F000DF93EC018617970711F00E943E20CE0156
:10410000DF91CF9108950F931F93CF93DF93EC012D
:1041100088819981009729F02A813B8126173707EA
:1041200088F48B016F5F7F4F0E949733009761F097
:10413000998388831B830A832C813D81232B11F46F
:10414000FC01108281E001C080E0DF91CF911F91DE
:104150000F910895CF93DF93EC01888199810097A7
:1041600011F00E94FF32198218821D821C821B826C
:104170001A82DF91CF910895EF92FF920F931F93D0
:10418000CF93DF93EC017B018A01BA010E94832067
:10419000811104C0CE010E94AA2007C01D830C8398
:1041A000B701888199810E947F34CE01DF91CF9140
:1041B0001F910F91FF90EF900895FC0180819181F4
:1041C0000C94FF32FB01DC0111961C921E92139697
:1041D0001C921E92129715961C921E921497861787
:1041E000970749F0608171816115710521F0448163
:1041F00055810C94BC200895FC0111821082138219
:104200001282158214826115710551F0FB01019033
:104210000020E9F73197AF01461B570B0C94BC20E7
:104220000895BF92CF92DF92EF92FF920F931F9368
:10423000CF93DF937C016B01EA01890124173507D5
:1042400020F48D2FE901042F182F63E472E0C701D9
:104250000E94FC20D60114968D919C911597C81749
:10426000D90748F58017910708F48C01D601ED9124
:10427000FC911197E00FF11FB08010824D915C917D
:10428000BA016C0F7D1F6115710561F0FB01019092
:104290000020E9F73197AF01461B570BC7010E9479
:1042A000BC2003C0C7010E94AA20D601ED91FC9159
:1042B000E00FF11FB082C701DF91CF911F910F91E5
:1042C000FF90EF90DF90CF90BF900895CF92DF9254
:1042D000EF92FF920F931F93CF93DF9300D0CDB750
:1042E000DEB78C016B0163E472E00E94FC20C60122
:1042F0000E94E91F97FD1EC089831A82F801E4809D
:10430000F580FFEFEF1AFF0AB701C8010E94832072
:10431000882369F3F8012081318184819581BE0170
:104320006F5F7F4F820F931F0E947F34F801F582E9
:10433000E482DDCFC8010F900F90DF91CF911F91E4
:104340000F91FF90EF90DF90CF900895DC01ED91F9
:10435000FC910190F081E02D0994EF92FF920F9370
:104360001F93CF93DF938C017B01C0E0D0E0F70176
:10437000EC0FFD1F6491662361F0D801ED91FC9173
:104380000190F081E02DC8010995892B11F021964B
:10439000EECFCE01DF91CF911F910F91FF90EF9063
:1043A00008956115710579F0FB0101900020E9F78E
:1043B0003197AF01461B570BDC01ED91FC91028058
:1043C000F381E02D099480E090E008954F925F9290
:1043D0006F927F92EF92FF920F931F93CF93DF9391
:1043E000CDB7DEB7A1970FB6F894DEBF0FBECDBF35
:1043F0007C01FA01CB0119A2223008F42AE08E01D7
:104400000F5D1F4F422E512C612C712CBF01A30157
:1044100092010E942331F901CA01015011096A3049
:1044200014F4605D01C0695CD8016C93232B242BCC
:10443000252B61F7B801C7010E94D121A1960FB6C3
:10444000F894DEBF0FBECDBFDF91CF911F910F91CA
:10445000FF90EF907F906F905F904F9008954F92F4
:104460005F926F927F928F929F92AF92BF92CF9204
:10447000DF92EF92FF92CF93DF93EC016A017B0111
:10448000B22E9A01AB01C701B6010E9465328823A2
:1044900019F063E372E027C026013701E89477F84A
:1044A0002FEF3FEF4FE75FE7C301B2010E94653294
:1044B00081110DC02FEF3FEF4FE75FE7C301B2015E
:1044C0000E94F23718161CF467E372E00CC02FEF5D
:1044D0003FEF4FE75FE4C701B6010E946032181654
:1044E0009CF46BE372E0CE01DF91CF91FF90EF90EF
:1044F000DF90CF90BF90AF909F908F907F906F9004
:104500005F904F900C94D1212FEF3FEF4FE75FEC7E
:10451000C701B6010E94F23787FDE3CF20E030E00B
:10452000A901C701B6010E94F23787FF0AC06DE2F8
:10453000CE010E94A6214C01F7FAF094F7F8F0940E
:1045400002C0812C912CA12C60E070E080E09FE300
:10455000AB1441F020E030E040E251E40E94B83179
:10456000A394F6CF9B01AC01C701B6010E944C3168
:104570002B013C010E9431326B017C010E94F73714
:104580009B01AC01C301B2010E944B312B013C01E4
:104590002AE0B701A601CE010E94E6217C01E80CC9
:1045A000F91CBB2039F06FE372E0CE010E94D121EB
:1045B000E80EF91EDB2CDD2029F120E030E040E29E
:1045C00051E4C301B2010E9458382B013C010E9402
:1045D00031324B01A12CB12C2AE0B501A401CE014E
:1045E0000E94E621E80EF91EC501B4010E94F737CA
:1045F0009B01AC01C301B2010E944B312B013C0174
:10460000DA94D9CFC701DF91CF91FF90EF90DF907F
:10461000CF90BF90AF909F908F907F906F905F9062
:104620004F9008950C94D1211F920F920FB60F92C4
:1046300011242F933F934F935F936F937F938F93A7
:104640009F93AF93BF93EF93FF9388EB93E00E9408
:104650009D1EFF91EF91BF91AF919F918F917F919F
:104660006F915F914F913F912F910F900FBE0F90DF
:104670001F9018951F920F920FB60F9211242F932F
:104680008F939F93EF93FF93E091C803F091C90339
:104690008081E091CE03F091CF0382FD12C0908122
:1046A0008091D1038F5F8F732091D203821751F0D5
:1046B000E091D103F0E0E854FC4F958F8093D10353
:1046C00001C08081FF91EF919F918F912F910F9069
:1046D0000FBE0F901F9018951F920F920FB60F925A
:1046E00011242F933F934F935F936F937F938F93F7
:1046F0009F93AF93BF93EF93FF93E0914602F091A6
:104700004702309709F451C0968DA685B7858585F7
:1047100091FF04C09C91892329F447C09C9189236F
:1047200009F043C0A389B4899C9185898095892328
:104730008C93868997890197F1F7608D718DA68595
:10474000B785558538E020E0CB010197F1F7822F3E
:1047500090E095958795282F4C91452309F0206886
:10476000315091F7868D81FD20958091450290E032
:1047700001968F73992730914402381749F0A09120
:104780004502B0E0A159BC4F2C938093450203C071
:10479000868D8160868F828D938D0197F1F7A38935
:1047A000B4899C918589892B8C93FF91EF91BF915E
:1047B000AF919F918F917F916F915F914F913F91B9
:1047C0002F910F900FBE0F901F901895E091460209
:1047D000F0914702E817F90769F4A389B4899C911D
:1047E0008589809589238C93109247021092460206
:1047F00081E0089580E0089561E472E088EB93E041
:104800000C94D121E2E6F5E0119285E0E237F80759
:10481000D9F78BE280936205E0915C05F0915D052C
:1048200060817181828193812AE043E655E00E9494
:104830004035E0915E05F0915F0560817181828174
:1048400093812AE046E655E00C944035809172054C
:1048500090917305A0917405B0917505892B8A2BF1
:104860008B2B69F58091B703823048F16AE773E0DA
:1048700088EB93E00E94AD210E94FC2386E58093A3
:104880000C010E94022466E773E087EB95E00E942A
:10489000AD2162E675E087EB95E00E94122362E7A6
:1048A00073E087EB95E00E94AD210E94F1246093B4
:1048B0007205709373058093740590937505089540
:1048C000CF93DF93CDB7DEB728970FB6F894DEBF4E
:1048D0000FBECDBF1D8290E49E8324E12F8324E58B
:1048E000288719829A8390E19B8390E59C8390911D
:1048F0004005691710F06FEF690F40914105262FB1
:1049000030E0FE01E20FF31F403121F4943011F446
:10491000918101C09581682F690F606889E395E0F6
:1049200028960FB6F894DEBF0FBECDBFDF91CF91B2
:104930000C94A405FF920F931F93CF93DF93C09124
:104940007C05D0917D05209719F48FEF9FEF1EC055
:10495000682FE0917805F0917905EC0FFD1FF0804C
:1049600010820091780510917905062E000C770BC6
:10497000C8010E949534C00FD11FF882009729F317
:104980002091780530917905821B930BDF91CF91AF
:104990001F910F91FF9008953FB7F8948091E9051A
:1049A0009091EA05A091EB05B091EC0526B5A89B86
:1049B00005C02F3F19F00196A11DB11D3FBFBA2FB1
:1049C000A92F982F8827820F911DA11DB11DBC0111
:1049D000CD0142E0660F771F881F991F4A95D1F7D6
:1049E00008952FB7F8946091E5057091E6058091E0
:1049F000E7059091E8052FBF08951F920F920FB61B
:104A00000F9211242F933F938F939F93AF93BF9354
:104A10008091E5059091E605A091E705B091E80544
:104A20003091E40523E0230F2D3720F40196A11DDA
:104A3000B11D05C026E8230F0296A11DB11D2093CC
:104A4000E4058093E5059093E605A093E705B09310
:104A5000E8058091E9059091EA05A091EB05B091F8
:104A6000EC050196A11DB11D8093E9059093EA051F
:104A7000A093EB05B093EC05BF91AF919F918F91FF
:104A80003F912F910F900FBE0F901F901895CF93CD
:104A9000DF93CDB7DEB7A7970FB6F894DEBF0FBE92
:104AA000CDBF789484B5826084BD84B5816084BDB7
:104AB00085B5826085BD85B5816085BD80916E00BC
:104AC000816080936E0010928100809181008260ED
:104AD000809381008091810081608093810080912A
:104AE00080008160809380008091B1008460809319
:104AF000B1008091B00081608093B00080917A0015
:104B0000846080937A0080917A00826080937A003A
:104B100080917A00816080937A0080917A00806829
:104B200080937A001092C10099E288E10FB6F89460
:104B3000A895809360000FBE90936000A89561E0F7
:104B400084E00E94C31D0E943010A89561E08DE0B2
:104B50000E94C31DE091C803F091C90382E08083E5
:104B6000E091C403F091C5031082E091C603F09177
:104B7000C70380E180831092D003E091CC03F091D1
:104B8000CD0386E08083E091CA03F091CB0380815E
:104B900080618083E091CA03F091CB0380818860BB
:104BA0008083E091CA03F091CB0380818068808389
:104BB000E091CA03F091CB0380818F7D808367E908
:104BC00071E088EB93E00E94D1210E94FC23E091E8
:104BD0008405F0918505138615861486DF011B96E2
:104BE00033961E92AE17BF07E1F71092830511E0CE
:104BF000BE016D5E7F4F80918405909185050E9476
:104C00007516882309F451C067E0CE0143960E94CF
:104C100083159A8D8913ECCF80917F05811127C070
:104C200080918405909185050E943F16BE016D5EBE
:104C30007F4F80918405909185050E94D21540E0B8
:104C400064EB80918405909185050E949015809178
:104C50008405909185050E94FF15082F8091840599
:104C6000909185050E943F16002309F41EC7BE01DE
:104C70006F5F7F4FCE0143960E943E1000918005EA
:104C8000CE0143960E945B18801718F4809180052E
:104C900004C0CE0143960E945B18809380058091EA
:104CA00083058F5F80938305A3CF0E948B110E94A1
:104CB000971060936E0270936F02809370029093CE
:104CC0007102A89585E594E00E94F0131092D20538
:104CD0001092D1051092D0051092CF051092CE05FA
:104CE0001092CD058DE991E09093D4058093D30582
:104CF0009091C305963108F057C02DEB30E030930A
:104D0000CE052093CD052BE931E03093D0052093DB
:104D1000CF052CE231E03093D2052093D1052091CC
:104D20006800983050F031E09E3008F430E081E0C7
:104D300001C0880F3A95EAF701C084E0822B809386
:104D40006800983038F09E3040F0963148F020E00E
:104D500030E008C02DE630E005C02BE630E002C0B0
:104D60002CE630E03093CB052093CA05983030F420
:104D700081E001C0880F9A95EAF70EC0292F30E034
:104D80009E3018F42850310902C02E50310981E0BC
:104D900001C0880F2A95EAF78093CC058091D3054E
:104DA0009091D4050197F1F78091D1059091D205AA
:104DB000892B21F1809146029091470225E0873BA3
:104DC0009207E1F0009711F00E94E6238091D5054B
:104DD0008E7F8093D505109245021092440287EB96
:104DE00095E09093470280934602E091CA05F091C6
:104DF000CB0590818091CC05892B80836DE081E08B
:104E00000E94C31D6FEF70E088E795E00E94832049
:104E100085E191E0909317058093160585E295E072
:104E20000E94F0134091320550E06091310570E02E
:104E300085E295E00E94A51385E295E00E94C411E9
:104E4000909334058093330580913205823088F049
:104E500085E295E00E94C41120E030E0382F809177
:104E6000330590913405822B932B909334058093D6
:104E7000330520E042E060E189E395E00E94B60658
:104E800060E080E00E94602467E971E089E395E0DA
:104E90000E94122361E080E00E9460246CE770E0D1
:104EA00089E395E00E94AD21ABE3CA2ED12CE12C21
:104EB000F12CC601EDE2CE16D104E104F10441F576
:104EC0006DE670E087EB95E00E94AD2162EA71E04B
:104ED000CE0143960E94FC2066E775E0CE01019664
:104EE0000E944415BE016D5E7F4FCE0101960E9467
:104EF00024208C01CE0101960E94DD20CE01439634
:104F00000E94DD200F3F1F4F41F468E670E0DACFCA
:104F1000889719F40E94301006C068EE73E080E0B4
:104F200090E00E94FF1D61E08AE00E9460242AE078
:104F3000C216D104E104F10428F460E389E395E0AA
:104F40000E94A621B701A60189E395E00E94030F04
:104F5000A89581E0C81AD108E108F108EFEFCE1654
:104F6000DE06EE06FE0609F0A4CF0E94560C109253
:104F7000640280E090E00E94163981112BC044E069
:104F800063EB73E084E690E00E940A1744E06FEA66
:104F900073E088E690E00E940A1741E067EB73E057
:104FA0008CED90E00E940A1742E065E271E088ED26
:104FB00090E00E940A1744E066E575E088EC90E016
:104FC0000E940A1744E062E575E080ED90E00E94DF
:104FD0000A1702C00E940B0840E061E385EA91E0F5
:104FE0000E949C080E94FA0684EB95E0909393043B
:104FF000809392048AEF96E09093950480939404B2
:1050000081E080936D046CE3E62EFF24F3948E011F
:105010000F5F1F4F72E0872E912CCC24C394D12CAC
:10502000FAE0AF2EB12CA8950E94F12440906502C1
:10503000509066026090670270906802DC01CB01BC
:1050400084199509A609B709893E9340A105B105C0
:1050500008F4E8C10E94F12460936502709366022F
:105060008093670290936802809164028F5F8093BF
:105070006402A8956E2D0E94EF30911105C08091B9
:105080006F04882309F414C5A895809164026E2DDD
:105090000E94EF309111ACC18091B703882309F4CD
:1050A000A7C1A89560905A0570905B0560EB70E011
:1050B00087EB95E00E94AD21B301C8010E94441521
:1050C00022E0620E711CB801C3010E947720C80162
:1050D0000E94DD2066EB71E0CE0143960E94FC2029
:1050E000BE016D5E7F4FC3010E9424202C0166EB40
:1050F00071E0CE0181960E94FC20BE016F5D7F4F62
:10510000C3010E9424209201275F3F4FAC01495FF9
:105110005F4FB301C8010E941121C8010E941920EC
:10512000C8016FA30E94DD20CE0181960E94DD2080
:10513000CE0143960E94DD206FA1611159C1A8954F
:1051400010927205109273051092740510927505F5
:1051500080E280930C0160905A0570905B0560E9D5
:1051600070E087EB95E00E94AD216EEB71E0CE011F
:1051700043960E94FC20B301C8010E944415BE0161
:105180006D5E7F4FC8010E9424202C01C8010E943F
:10519000DD20CE0143960E94DD2045204094C9F5D4
:1051A00067E870E087EB95E00E94AD212AE041E0DE
:1051B00050E060E070E087EB95E00E94E6216AE253
:1051C00072E087EB95E00E941223B301C8010E94B0
:1051D0004415F2E06F0E711CB801C3010E947720E4
:1051E000C8010E94DD2061EC71E0C8010E94FC2032
:1051F000B801C3010E9424202C01C8010E94DD20B7
:105200004520409431F0B301CE014B960E94E2203C
:1052100006C063E472E0CE014B960E94FC20A89584
:105220004F8D58A16B8D7C8D88EB93E00E943A1EC8
:105230000E94FC238F8D98A1892B09F4D5C0EB8D9A
:10524000FC8D8081882309F4CFC060905A0570904E
:105250005B056BE970E087EB95E00E94AD21B3013F
:10526000C8010E944415B801C30102960E9477202C
:10527000C8010E94DD2062EA71E0C8010E94FC20A2
:10528000C8010E94DD208091B703882309F4ACC0D7
:1052900067EC71E0C8010E94FC20B801CE014B967A
:1052A0000E9424203C01C8010E94DD20E09160059D
:1052B000F0916105808191811C8A1B8A1E8A1D8A5A
:1052C000188E1F8A4AE0B8010E941135F80101903A
:1052D0000020E9F73197AF01401B510BB801CE0117
:1052E00043960E94BC2093012A5F3F4FA3014E5F6B
:1052F0005F4FBE01655E7F4FC8010E9411212D8165
:105300003E818F89988D2817390719F589819A81EF
:105310006B897C89009719F061157105A9F46115F5
:10532000710551F02115310539F0FB01808190E0C4
:105330009195819591090AC0009769F0232B59F046
:10534000FC01808190E002C00E94763421E0892B2C
:1053500019F020E001C021E0C8012FA30E94DD2048
:10536000CE0143960E94DD202FA12223E9F16AECB1
:1053700071E0C8010E94FC20B801CE014B960E944A
:1053800024203C01C8010E94DD2077FC1CC0F2E013
:105390006F0E711C8F8D98A16816790648F48B8D5D
:1053A0009C8D009729F0FC01E60DF71D808101C05E
:1053B00080E080538093B70341E067EB73E08CEDAE
:1053C00090E00E9431176DEC71E0C8010E94FC2052
:1053D000B801CE014B960E9424203C01C8010E94D6
:1053E000DD2077FE0E94350FCE014B960E94DD2016
:1053F000A8958091640280FD0CC00E948B110E94D0
:10540000971060936E0270936F0280937002909376
:10541000710280914802882319F01092480202C05C
:10542000F092480280916F04811108C0809162025D
:1054300090916302892B11F40E94FA0686EB94E0A6
:105440000E94C709833259F41092630210926202DB
:105450001092610210926002F0926D0427C0909148
:105460006F04992321F090916D0491111FC087332F
:1054700009F021C389E395E00E94AC0510926D0408
:10548000D0926302C0926202109261021092600296
:1054900010924A0210924B0210924C0210924D024E
:1054A0001092490289E395E00E94EB058091580231
:1054B00081110CC00E94F124609354027093550234
:1054C0008093560290935702F09258028091700494
:1054D000882371F080916D04882351F0109270043C
:1054E0006091910480917304909174040E949718C4
:1054F00080916904811152C080916A048E3008F055
:105500008E508770806480937C0080917A008064E4
:1055100080937A0080917A0086FDFCCF20917800FC
:105520008091790030E0382B60916B0470916C04AD
:1055300080914E0290914F02821B930B97FF03C004
:10554000919581959109681779072CF430934F0252
:1055500020934E0220C0E7E6F4E080E090E0468928
:105560005789DA01A61BB70BA217B3077CF4460FC5
:10557000571F2417350754F4880F991F880F991F58
:10558000FC01E158FB4F6080718013C00196349696
:105590008530910521F7612C712C0BC0E0916704D7
:1055A000F09168040190F081E02D87E694E0099580
:1055B0003C018091530290E068167906B9F0609240
:1055C0005302109252020E94F1246093540270938D
:1055D00055028093560290935702109251021092F6
:1055E0005002D092A704C092A604F5C00E94F124F4
:1055F0002091540230915502409156025091570229
:10560000DC01CB01821B930BA40BB50B89379105F1
:10561000A105B10508F4DFC00E94F1246093540293
:10562000709355028093560290935702611471044F
:1056300021F080916D0481110BC0109251021092E3
:105640005002D092A704C092A60410925202C3C086
:10565000F5E06F16710411F4F0926F0480916F04FD
:10566000882309F4B8C08091520290E06816790648
:10567000C1F4809150029091510201969093510291
:1056800080935002B5010E94FB30892B81F08091FC
:10569000A6049091A70402969093A7048093A60471
:1056A00006C060925202D092A704C092A604462D72
:1056B00020916E0485E06816710419F06A946728D9
:1056C000B1F48091710490917204222321F063E07F
:1056D0000E94F51909C060E0009721F480917504DB
:1056E000909176040E94FA181092B30474C043306B
:1056F00031F0443031F0423031F464E005C061E013
:1057000003C062E001C060E0222361F08091B30435
:105710008F5F8093B30480917104909172040E9412
:10572000F51959C08FEF860F823018F0643009F0F8
:1057300052C02091730430917404F9017196E49180
:10574000E150643081F510927204109271048091DE
:105750007B0490917C04009781F48091790490916E
:105760007A04009769F48091770490917804009707
:1057700009F4B5C220E030E005C022E030E002C00C
:1057800021E030E0220F331FF901E958FB4F11826D
:10579000108290937404809373041092910461E0DA
:1057A0000E94FA1818C090919104613011F061E0E4
:1057B00001C06FEF690FE61730F481E06F3F09F029
:1057C00080E0682F61956F3F09F46E2F609391041C
:1057D000C9010E949718A895809172059091730550
:1057E000A0917405B0917505892B8A2B8B2BB1F094
:1057F0000E94F124409072055090730560907405EA
:1058000070907505DC01CB0184199509A609B709CB
:10581000813E9349A440B10508F076C2A89577244B
:1058200073942091B3033091B4034091B503509128
:10583000B60360916E0270916F0280917002909138
:1058400071020E94603218160CF0712C672D84EAE8
:1058500095E00E94C90A882331F041E061E380EDC0
:1058600091E00E949C0820E030E040E05FE360911E
:10587000B3037091B4038091B5039091B6030E9475
:105880004B319B01AC0160916E0270916F0280916F
:105890007002909171020E94F237682F661F66278E
:1058A000661F84EA95E00E947D0A882331F041E07A
:1058B00060E380ED91E00E949C082091AF0330915D
:1058C000B0034091B1035091B20360916E027091A8
:1058D0006F0280917002909171020E94F237682FDE
:1058E000661F6627661F82E995E00E94C90A882321
:1058F00031F041E061E381EE91E00E949C0820E0FC
:1059000030E040E05FE36091AF037091B0038091BD
:10591000B1039091B2030E944C319B01AC017724FA
:10592000739460916E0270916F02809170029091F9
:1059300071020E94603218160CF0712C672D82E9FA
:1059400095E00E947D0A882331F041E060E381EE1A
:1059500091E00E949C0886EB94E00E946A098823EB
:1059600021F01092B5051092A30588EB93E00E94F8
:10597000871E181619060CF095C068EB73E0CE016F
:1059800043960E9466216DEC71E0C8010E94FC20E4
:10599000B801CE0143960E9424203C01C8010E9418
:1059A000DD206720609409F479C00E94FC2362EF37
:1059B00071E088EB93E00E94122340916E025091B7
:1059C0006F02609170027091710222E088EB93E0A7
:1059D0000E942F220E94FC2365EF71E088EB93E088
:1059E0000E9412234091B70350E060E070E02AE08B
:1059F00088EB93E00E94E62160E288EB93E00E944E
:105A0000A6216BE288EB93E00E94A6214091560507
:105A10005091570560915805709159052AE088EB1F
:105A200093E00E94E6214091520550915305609108
:105A30005405709155052AE088EB93E00E94E62119
:105A400060E288EB93E00E94A621409125015091ED
:105A5000260160E070E02AE088EB93E00E94E621F6
:105A60000E94FC230E94FC230E94FC23612C712CC9
:105A7000B801C3010E944D08B80188EB93E00E9471
:105A8000D1210E94FC238FEF681A780AE0E26E169B
:105A9000710471F70E94FC230E94FC23CE014396FF
:105AA0000E94DD200E94271FBECA10937F05DFC819
:105AB0000E94560CE9CA883359F489E395E00E94A4
:105AC000AC0510926D049092630280926202DCCC6D
:105AD00086EB94E00E946A09782E882309F441C07D
