:100000000C9467020C948F020C948F020C947E2344
:100010000C947E230C947E230C948F020C948F02FC
:100020000C948F020C94140B0C948F020C948F027E
:100030000C948F020C948F020C948F020C948F02FC
:100040000C940F250C948F020C944C230C942623B3
:100050000C948F020C948F020C948F020C948F02DC
:100060000C941A140C948F0200407A10F35A00A0DA
:10007000724E18090010A5D4E80000E87648170071
:1000800000E40B54020000CA9A3B000000E1F505B1
:10009000000080969800000040420F000000A086FB
:1000A00001000000102700000000E803000000002D
:1000B0006400000000000A000000000001000000D1
:1000C00000002C76D888DC674F0823DFC1DFAE59EB
:1000D000E1B1B796E5E3E453C63AE651997696E87E
:1000E000E6C28426EB898C9B62ED407C6FFCEFBC02
:1000F0009C9F40F2BAA56FA5F490055A2AF75C932D
:100100006B6CF9676DC11BFCE0E40D47FEF520E662
:10011000B500D0ED902E0300943577050080841E45
:10012000080000204E0A000000C80C333333330FA0
:10013000986E12831141EF8D2114893BE65516CF3D
:10014000FEE6DB18D1844B381BF77C1D901DA4BB49
:10015000E424203284725E228100C9F124ECA1E5FE
:100160003D2741540D0A0041542B434C54533D311B
:100170003B26570D0A0053544152542047534D20FB
:100180000041542B434D47523D0041542B434D47B2
:10019000463D310D0061742B636D6764613D2264DF
:1001A000656C20616C6C220A0D0041542B43504158
:1001B000530D0A004154480D0A0048414E4700576C
:1001C00041544348444F47205445535400565943E3
:1001D00048204E4153544156204F4B00564F4C41FE
:1001E0004E492E2E2E0020202020202020200041AD
:1001F000542B4353510D0A00434859424120475361
:100200004D210041542B434F50533F0D0A00617460
:100210002B63636C6B3F0D0A0061742B63636C6B23
:100220003F0D0A00005EBCE2613FDD83C29C7E2080
:10023000A3FD1F419DC3217FFCA2401E5F01E3BDC2
:100240003E6082DC237D9FC1421CFEA0E1BF5D03B6
:1002500080DE3C62BEE0025CDF81633D7C22C09EAA
:100260001D43A1FF4618FAA427799BC584DA386696
:10027000E5BB5907DB856739BAE406581947A5FB82
:100280007826C49A653BD987045AB8E6A7F91B4576
:10029000C6987A24F8A6441A99C7257B3A6486D86A
:1002A0005B05E7B98CD2306EEDB3510F4E10F2AC56
:1002B0002F7193CD114FADF3702ECC92D38D6F3142
:1002C000B2EC0E50AFF1134DCE90722C6D33D18F36
:1002D0000C52B0EE326C8ED0530DEFB1F0AE4C122A
:1002E00091CF2D73CA947628ABF517490856B4EA16
:1002F0006937D58B5709EBB536688AD495CB297702
:10030000F4AA4816E9B7550B88D6346A2B7597C9F5
:100310004A14F6A8742AC896154BA9F7B6E80A54E9
:10032000D7896B3500000000240027002A00000058
:1003300000080002010000030407000000000000A4
:1003400000000400000000000000005C05D0000474
:1003500000000000000000006005C800020F270038
:1003600000E80300002501D80000030000000000A1
:100370000000C103DC0006E703000019FCFFFFB921
:1003800003680006E703000019FCFFFFBD036400DB
:1003900047534D2054454C204349534C4F000000D7
:1003A0000100420347534D2050524544564F4C42A2
:1003B00041202B0001004F0347534D204B4F440079
:1003C000000000000000000001005C0347534D20C6
:1003D00052455A494D000000000000000100690329
:1003E0005445504C204E495A4B4120205B435D0000
:1003F000010076035445504C205659534F4B412031
:100400005B435D0001008303CC03B803A4039003A6
:10041000F403E003565943484F5A49204E41535480
:100420004156210002003B0847534D2D3E0000007D
:10043000000000000000000000040804544553546C
:1004400020564F4C414E49210000000002007D061D
:100450005659535452204E41535441562D3E00009C
:100460000002100450043C04280414043B0D0A004C
:100470004154440043414C4C00000000002500283A
:10048000002B0000000000230026002900040404C3
:10049000040404040402020202020203030303032D
:1004A000030102040810204080010204081020010A
:1004B0000204081020526F6F74000000000000005A
:1004C00000000000000004640400DA2ECC2E112489
:1004D0001FBECFEFD8E0DEBFCDBF25E0AEE4B2E077
:1004E00001C01D92AB3FB207E1F712E0A0E0B1E01E
:1004F000E0E4F3E702C005900D92AE34B107D9F7FE
:1005000012E0C6E6D2E004C02197FE010E943D370A
:10051000C536D107C9F70E9459250C9493390C941C
:100520000000DC01ED91FC910684F785E02D41E0AF
:10053000099581E090E00895089508950895DC01FB
:1005400026E0629FA00DB11D112490965C934E93FE
:100550005F9721E091962C939197FC01E459FF4F0E
:10056000208131960190F081E02D222331F03097E7
:1005700049F0611107C0DC0102C0309719F05C96A8
:100580008C91099408950895089580E090E008956D
:10059000CF92DF92EF92FF920F931F93CF93DF934F
:1005A0008C0181E090E002C0880F991F6A95E2F704
:1005B000E801C358DF4F442329F028813981822B79
:1005C000932B06C0809590952881398182239323AF
:1005D00099838883C880D980F801E558FF4F8081CE
:1005E00078019FE6E90EF11C91E09093C802809398
:1005F000C5021092C6021092C702D701ED91FC917C
:100600000190F081E02D6C2DC7010995F801E458A7
:10061000FF4F8081823048F0D701ED91FC9101902D
:10062000F081E02D6D2DC701099561E0C7010E94A1
:100630004D13C882D982DF91CF911F910F91FF9006
:10064000EF90DF90CF900895CF92DF92EF92FF92DC
:100650000F931F93CF93DF9301E010E002C0000FD0
:10066000111F6A95E2F77C012FE6E20EF11C6C0186
:10067000ECE7CE0ED11CF601408150E0319760814D
:1006800070E0C7010E94A913C7010E94C811EC01C4
:10069000F6018081823040F0C7010E94C81120E03D
:1006A00030E0382FC22BD32BC023D12381E090E040
:1006B000C017D10711F080E090E0DF91CF911F913A
:1006C0000F91FF90EF90DF90CF9008956F927F92FF
:1006D0008F929F92AF92BF92CF92DF92EF92FF9252
:1006E0001F93CF93DF931F92CDB7DEB73C01162F38
:1006F000FC0186E0689FE00DF11D112411A2878D99
:1007000090A181309105F9F01CF4892B51F04FC074
:1007100082309105B1F1039709F049C040E050E003
:1007200034C0442309F443C041E050E0C3010E94B7
:100730009F020E940325F301E85AFF4F60837183F3
:100740008283938334C049830E940325F301E85ACE
:10075000FF4FC080D180E280F3804B015C018C1898
:100760009D08AE08BF08729680819181A0E0B0E03C
:10077000498188159905AA05BB0518F442E050E0A7
:1007800004C0411114C043E050E0612FC3010F9039
:10079000DF91CF911F91FF90EF90DF90CF90BF90AE
:1007A000AF909F908F907F906F900C949F020F90CE
:1007B000DF91CF911F91FF90EF90DF90CF90BF908E
:1007C000AF909F908F907F906F9008952F923F925F
:1007D0004F925F926F927F928F929F92AF92BF9251
:1007E000CF92DF92EF92FF920F931F93CF93DF93FD
:1007F000CDB7DEB72A970FB6F894DEBF0FBECDBFD8
:100800009A8789870E94032529853A85245A3F4F74
:100810003A832983D9010D911D912D913C91AB0112
:10082000BC01401B510B620B730BE985FA85E8593B
:10083000FF4F80819181A0E0B0E010E08417950720
:10084000A607B70708F05FC169847A84F6E66F0EE1
:10085000711CE984FA8422E6E20EF11CD3018C912A
:100860001817A0F4E985FA8580819181F701A081AC
:10087000B181A10FB11DFC012081318142E06C9159
:1008800089859A85F90109951F5FE8CF10E02984D1
:100890003A84B7E62B0E311CE984FA84E4E6EE0EC6
:1008A000F11C812C912C5401839429853A852E5971
:1008B0003F4F3C832B83F1018081181708F08DC0D6
:1008C000C12ED12CA985BA858D919C91F701A0816B
:1008D000B181AC0DBD1DFC012081318141E06C91E5
:1008E00089859A85F9010995A985BA858D919C918B
:1008F000F701A081B181AC0DBD1DFC0122813381C6
:1009000040E06C9189859A85F9010995D501C4016A
:10091000012E04C0880F991FAA1FBB1F0A94D2F78B
:10092000AC019C012095309500E0F3018081A98500
:10093000BA85ED91FC91081770F5802F90E0AB819E
:10094000BC816D917C912C01DB01A40DB51D04804F
:10095000F581E02D6C9189859A852F8338874D83A9
:100960005E830995440C551C2F8138854D815E812D
:10097000E985FA85E40DF51D892B29F4808591859B
:10098000842B952B04C080859185822393239187A6
:1009900080870F5FCACFD7018D919C91DC01AC0D90
:1009A000BD1D0280F381E02D41E06C9189859A851F
:1009B0000995A985BA85ED91FC91D7018D919C91FE
:1009C000DC01AC0DBD1D0190F081E02D40E06C918B
:1009D00089859A8509951F5F6ECFE984FA84FCE1C9
:1009E000EF0EF11C89859A85885A9F4FF7012FEFEA
:1009F0003FEF43815481452B21F4108232832183C0
:100A000015823696E817F907A1F7B12CC984DA8464
:100A100020E6C20ED11C86E0A82EF3018081B81614
:100A200008F059C0912C09851A850B0D111D0B0D6D
:100A3000111D085F1F4FD1018C91981608F049C015
:100A4000D8014D915C91092C02C0569547950A94A6
:100A5000E2F741705527B89EC0011124890D911D00
:100A6000D601ED91FC91E80FF91FA081E985FA8587
:100A700060E0258D368D2817390721F4417089856E
:100A80009A851CC06F5F36966A3099F7452BF9F04E
:100A9000F70160E070E02081211113C0A69EF001F3
:100AA000A79EF00D112429853A85E20FF31FA48F2C
:100AB000968F858F10A2178E41E0C9010E946603B0
:100AC00006C06F5F7F4F36966A30710521F79394A9
:100AD000B2CFB394A2CFE985FA85B19689859A857C
:100AE000835A9F4F10E02081211111E03696E817BC
:100AF000F907C9F70E940325A981BA816D937D93F7
:100B00008D939C931397812F2A960FB6F894DEBF8E
:100B10000FBECDBFDF91CF911F910F91FF90EF904E
:100B2000DF90CF90BF90AF909F908F907F906F900D
:100B30005F904F903F902F900895862F0C946E1DDC
:100B4000862F642F0C94971D862F642F0C94C71D3D
:100B5000DC01ED91FC910684F785E02D40E00994DD
:100B6000DC01ED91FC910484F585E02D6FEF099493
:100B7000CF92DF92EF92FF920F931F93CF93DF9369
:100B800000D0CDB7DEB78C01790183E495E04A83CC
:100B900069830E94B00569814A81842F0E94722472
:100BA0006801C601801B910B8E159F056CF4F60140
:100BB00061916F018FED860F8E3508F060E283E45E
:100BC00095E00E949102EDCF0F900F90DF91CF91B1
:100BD0001F910F91FF90EF90DF90CF90089561E00B
:100BE0000E94A8058BE39FE10197F1F708950F9309
:100BF0001F93CF93DF93EC01423018F08C81886013
:100C00008C834F836887222329F0413019F48C812B
:100C100084608C8364E670E080E090E00E94031EB4
:100C20006C8164FD31C0E881F9810684F785E02D8F
:100C300042E063E0CE0109958BE496E40197F1F779
:100C4000E881F9810684F785E02D42E063E0CE017A
:100C5000099503E512E0C8010197F1F7E881F981F0
:100C60000684F785E02D42E063E0CE010995C801D6
:100C70000197F1F7E881F9810684F785E02D42E0DC
:100C800062E0CE01099517C06062CE010E94A805FE
:100C90008BE496E40197F1F76C816062CE010E94CB
:100CA000A80503E512E0C8010197F1F76C816062C5
:100CB000CE010E94A805C8010197F1F76C8160621E
:100CC000CE010E94A8058BEE90E00197F1F784E039
:100CD0008D836CE0CE010E94A805CE010E94EF0535
:100CE00082E08E8366E0CE010E94A805CE01DF91EE
:100CF000CF911F910F910C94B00583E495E00E9471
:100D0000EF0560E080E00E9472246CED71E083E406
:100D100095E00E94C0210E94382468EE73E080E0D4
:100D200090E00C94031EFC0123812223D1F09181D9
:100D3000909569236083828191E09093C8028093AB
:100D4000C5021092C6021092C7028FE594E00E947D
:100D5000461261E08FE594E00E944D13282F30E0A9
:100D600002C020E030E081E090E0232B11F080E031
:100D700090E00895FF920F931F93CF93DF93EC01C0
:100D8000162F042FF22E8B85888B8FE594E00E941E
:100D9000F413888991E09093C8028093C502109261
:100DA000C6021092C70261E08FE594E00E944D13E5
:100DB00091E0811190E0998B992329F08FE594E0DF
:100DC0000E94C8118E878989882339F01F861C826A
:100DD00060E0CE010E960E9493062F2D402F612FCA
:100DE000CE01DF91CF911F910F91FF900C94F705E9
:100DF00066EE71E083E495E00C94C02160E080E051
:100E00000E947224809183028A3028F460E383E494
:100E100095E00E94B9214091830250E060E070E0CB
:100E20002AE083E495E00E94F92180915202882310
:100E300011F06AE301C060E283E495E00E94B92109
:100E4000809182028A3028F460E383E495E00E9476
:100E5000B9214091820250E060E070E02AE083E432
:100E600095E00E94F92160E283E495E00E94B921B7
:100E70008091BF05811104C08091AD05882321F0C8
:100E800080915202882329F083E495E00E94B00506
:100E90000BC0E0914305F09144050484F585E02DF5
:100EA00060E083E495E0099560E086E00E947224AA
:100EB0008091BE05882319F064E072E009C080913A
:100EC000AC05882319F067E072E002C06AE072E0C6
:100ED00083E495E00E94242360E283E495E00E948D
:100EE000B92160E283E495E00E94B92160E088E0E6
:100EF0000E94722460E283E495E00E94B92160912F
:100F000078027091790280917A0290917B020E941E
:100F1000A7366D597F4F673C710528F460E283E482
:100F200095E00E94B92160917802709179028091D8
:100F30007A0290917B020E94A736675F7F4F6331F0
:100F4000710528F460E283E495E00E94B92120E075
:100F500030E0A901609178027091790280917A0263
:100F600090917B020E94DD3618162CF46BE283E42C
:100F700095E00E94B92140917802509179026091E8
:100F80007A0270917B0222E083E495E00E94422283
:100F900061E080E00E947224E0916405F0916505B3
:100FA0008085882311F061E202C060910C0183E426
:100FB00095E00E94B9210E94F80661E082E00E945B
:100FC00072248091840223E0829FC00111240A9739
:100FD0002CF460E283E495E00E94B9214091840200
:100FE00083E0489FA0011124052E000C660B770BAF
:100FF00083E495E00E94070F65E283E495E00E9498
:10100000B92161E086E00E94722465E872E083E421
:1010100095E00E9424230E94F8060C94F80680E0D4
:1010200090E0A8ECB2E48093BD039093BE03A0933C
:10103000BF03B093C0031092B9031092BA03109289
:10104000BB031092BC0344E06DEB73E084E690E0D8
:101050000E94351744E069EB73E088E690E00E9457
:10106000351782E08093C10341E061EC73E08CEDC1
:1010700090E00C9435170E940F0883E495E00E94DD
:10108000EF0560E080E00E9472246DEC71E083E483
:1010900095E00E94C02168EE73E080E090E00C943F
:1010A000031EEF92FF920F931F93CF93DF9300D015
:1010B000CDB7DEB78C017B0142E0BE016F5F7F4F91
:1010C00080EE90E00E940E1729813A81215031096B
:1010D000203231051CF43A83298302C01A82198216
:1010E00060E270E09B01201B310B89819A81820FA5
:1010F000931F0E9407379A83898300E010E0B701AD
:10110000600F711F89819A8124E0880F991F2A95A9
:10111000E1F78C519F4F41E0800F911F0E940E1705
:101120000F5F1F4F0031110551F7F701108A0F9023
:101130000F90DF91CF911F910F91FF90EF90089545
:10114000CF92DF92EF92FF920F931F93CF93DF9393
:1011500000D0CDB7DEB78C01F62E80915C05909162
:101160005D05A0915E05B0915F05892B8A2B8B2BC5
:1011700071F081E368130BC0442349F08091C103EF
:10118000833019F40E94390F02C00E9438248091E4
:10119000800268018A3048F4EFEFCE1ADE0A4AE096
:1011A000B80180E090E00E945C31809180024AE0CA
:1011B000B60190E00E945C318FE2F8018283B801B1
:1011C0006D5F7F4F80917F028A3040F44AE080E07B
:1011D00090E00E945C31C8010496BC0180917F02BE
:1011E0004AE090E00E945C3180E2F8018583B8011A
:1011F0006A5F7F4F809183028A3040F44AE080E04A
:1012000090E00E945C31C8010796BC018091830286
:101210004AE090E00E945C318AE3F8018087B801DF
:10122000675F7F4F809182028A3040F44AE080E01D
:1012300090E00E945C31C8010A96BC018091820254
:101240004AE090E00E945C3180E2F8018387F786F3
:1012500042E0BE016F5F7F4F80EE90E00E940E176C
:1012600089819A81809714F01A821982E12CF12CDD
:10127000B8016E0D7F1D89819A8124E0880F991F26
:101280002A95E1F78C519F4F41E08E0D9F1D0E94E2
:101290003517FFEFEF1AFF0A80E1E816F10441F776
:1012A00089819A81019660E270E00E9407379A83F3
:1012B000898342E0BE016F5F7F4F80EE90E00E9425
:1012C000351789819A810F900F90DF91CF911F91EF
:1012D0000F91FF90EF90DF90CF900895CF93DF9321
:1012E000EC010E94E6038E859F858130910589F18E
:1012F0008230910581F18430910579F1089779F177
:101300008C859D858130910561F18230910559F17F
:101310008430910551F1089751F18A859B85813080
:10132000910539F18230910531F18430910529F12F
:10133000089729F1888599858130910511F18230CE
:10134000910509F18430910501F1089701F180E0E0
:101350001FC08AE21DC080E31BC083E219C084E481
:1013600017C087E315C088E313C089E311C083E485
:101370000FC084E30DC085E30BC086E309C082E49F
:1013800007C081E305C082E303C083E301C081E4B9
:10139000DF91CF910895CF92DF92EF92FF920F935A
:1013A0001F93CF93DF93EC010E94E603888580FFB3
:1013B00023C083FF13C020E042E060E183E495E0B6
:1013C0000E94BA0663EA71E083E495E00E94242358
:1013D00068EE73E080E090E00E94031E888582FF43
:1013E0000BC083E495E00E94EF056FEB71E083E4AE
:1013F00095E00E94C021FFCF888599858E01015814
:101400001F4F892B61F48A859B85892B41F48C853C
:101410009D85892B21F48E859F85892BA1F1F8016B
:1014200080819181A281B381892B8A2B8B2B39F406
:101430000E940325F8016083718382839383F801FE
:10144000C080D180E280F380F4EFCF0EF1E0DF1EA8
:10145000E11CF11C0E9403256C157D058E059F057E
:10146000B8F4F801C080D180E280F380F8ECCF0EB0
:10147000D11CE11CF11C0E940325C616D706E80604
:10148000F90630F410C0F801108211821282138222
:10149000CE01DF91CF911F910F91FF90EF90DF90E0
:1014A000CF900C946E0980E0DF91CF911F910F9146
:1014B000FF90EF90DF90CF900895FC01E35BFF4F2A
:1014C000808191810E94CB09813461F0823469F07E
:1014D000843471F0833279F08A3281F0082E000C66
:1014E000990B089583E090E0089584E090E00895DA
:1014F00081E090E0089582E090E0089585E090E03A
:1015000008958F929F92AF92BF92CF92DF92EF9207
:10151000FF921F93CF93DF93EC01662361F118894B
:10152000112369F18C819D81AE81BF81892B8A2B2A
:101530008B2B31F40E9403256C837D838E839F83E4
:10154000CC84DD84EE84FF840E9403258C809D8002
:10155000AE80BF80DC01CB0188199909AA09BB09BB
:10156000C816D906EA06FB0650F4188A1C821D82AA
:101570001E821F8205C01C821D821E821F8210E0F7
:10158000812FDF91CF911F91FF90EF90DF90CF904F
:10159000BF90AF909F908F900895CF92DF92EF927F
:1015A000FF920F931F93CF93DF93EC01662371F1AA
:1015B000888981112FC088819981AA81BB81892B5B
:1015C0008A2B8B2B31F40E940325688379838A83CD
:1015D0009B83C884D984EA84FB840E940325088104
:1015E00019812A813B81DC01CB01801B910BA20B6D
:1015F000B30BC816D906EA06FB0660F481E0888BB7
:10160000898B188219821A821B8205C0188219825E
:101610001A821B8280E0DF91CF911F910F91FF9082
:10162000EF90DF90CF9008951F920F920FB60F9218
:1016300011242F933F934F935F936F937F938F93D7
:101640009F93AF93BF93EF93FF9380917C0280931E
:10165000B20080916D0490916E04019690936E0497
:1016600080936D0480916B0490916C04892BC1F17F
:101670008091740290917502A0917602B0917702E8
:101680000197A109B1098093740290937502A09308
:101690007602B09377028091740290917502A091C6
:1016A0007602B0917702181619061A061B06C4F0C6
:1016B00080917302181644F480916D0490916E0429
:1016C000873E93400CF484C08091730287FF08C06A
:1016D00080916D0490916E04181619060CF498C050
:1016E00080916D0490916E04883E93400CF4B0C0DC
:1016F00010926E0410926D04809181028F5F80932E
:101700008102809181028C3308F4A2C01092810280
:10171000809182028F5F80938202809182028C335B
:1017200008F496C010928202809183028F5F8093AA
:10173000830280918302883108F48AC01092830268
:10174000809180028F5F8093800280917F0282303F
:10175000C9F420917D0230917E02C90183709927DE
:10176000892B39F4C90164E670E00E940737892BA0
:1017700081F4C90160E971E00E940737892B49F0C3
:101780008CE108C0E0917F02F0E0E150FF4F8081E2
:1017900001C08DE190918002891708F059C091E055
:1017A0009093800280917F028F5F80937F0280916F
:1017B0007F028D3008F44CC090937F0280917D02AF
:1017C00090917E02019690937E0280937D0240C0AC
:1017D00020916B0430916C04032E000C440B550BCC
:1017E00060E07FE28DE090E00E941B37209374025E
:1017F00030937502409376025093770280916D0486
:1018000090916E04019690936E0480936D045CCF6A
:1018100020916B0430916C04032E000C440B550B8B
:1018200060E07FE28DE090E00E941B37209374021D
:1018300030937502409376025093770280916D0445
:1018400090916E04019790936E0480936D0448CF3D
:10185000FF91EF91BF91AF919F918F917F916F9188
:101860005F914F913F912F910F900FBE0F901F905E
:101870001895E0E7F0E080818E7F80838081897F0A
:101880008083E6EBF0E080818F7D8083E1EBF0E008
:1018900080818460808380818C7F8083A0EBB0E036
:1018A0008C918C7F8C938081877F808386E080936E
:1018B0007C0208958F929F92AF92BF92CF92DF9257
:1018C000EF92FF920F931F93CF93DF93CDB7DEB7C5
:1018D00062970FB6F894DEBF0FBECDBFA89569E141
:1018E00072E081EC95E00E94C02160E875E0CE01D5
:1018F00001960E944815BE016F5F7F4F82E895E018
:101900000E945120CE0101960E94F0206DE072E00D
:10191000CE0101960E940F21BE016F5F7F4F82E8CA
:1019200095E00E9437208C01CE0101960E94F020A4
:101930000F3F1F4F61F062E370E080E090E00E9493
:10194000031E6EE072E081EC95E00E94C0216DE024
:1019500072E0CE0101960E940F21BE016F5F7F4FA2
:1019600082E895E00E9437208C01CE0101960E940A
:10197000F0200F3F8FEF180709F0DDC063E372E03E
:10198000CE0107960E940F218091860590918705D0
:101990002B853C857C01E21AF30A2115310561F1A2
:1019A000009751F18217930738F1E816F90620F0F5
:1019B0007C0121E0E21AF108809082059090830575
:1019C000AF80B884C401CC24CA94DD24DA948401A5
:1019D0000E0D1F1D0817190770F0B5010E94793907
:1019E000009749F09C0128193909E216F30608F01E
:1019F00069010196EFCF860163E372E0CE010196A3
:101A00000E940F21BE016F5F7F4F82E895E00E9428
:101A10003720980121503109AC014F5F5F4F62E8D8
:101A200075E0CE010D960E942421BE01635F7F4FB9
:101A300082E895E00E945120CE010D960E94F02090
:101A4000CE0101960E94F020CE0107960E94F02060
:101A500022E030E040E050E062E875E0CE0101961F
:101A60000E942421CE0101960E942C207B01CE01F0
:101A700001960E94F02025E030E043E050E062E86B
:101A800075E0CE0101960E942421CE0101960E94AC
:101A90002C20D62ECE0101960E94F02028E030E0C6
:101AA00046E050E062E875E0CE0101960E942421F4
:101AB000CE0101960E942C20C62ECE0101960E94D6
:101AC000F0202BE030E049E050E062E875E0CE0124
:101AD00001960E942421CE0101960E942C20962E70
:101AE000CE0101960E94F0202EE030E04CE050E064
:101AF00062E875E0CE0101960E942421CE01019694
:101B00000E942C20A62ECE0101960E94F02021E1F9
:101B100030E04FE050E062E875E0CE0101960E94AF
:101B20002421CE0101960E942C20B62ECE010196D2
:101B30000E94F02002C0E12CF12C62E875E0CE0199
:101B400001960E94F5200D811E810115110519F4E1
:101B50001092A50210C00F31110510F00FE110E036
:101B600069817A81A80185EA92E00E945F39F801D3
:101B7000EB55FD4F1082CE0101960E94F02080911E
:101B800070008E7F809370008FB78F778FBF109219
:101B9000C00587E1891558F02BE32A1540F02B1575
:101BA00030F090928302A0928202B09281028FEF75
:101BB0008C0D8F3170F48FEF8D0D8C3050F4F7FC5D
:101BC00008C0C0928002D0927F02F0927E02E09222
:101BD0007D0280EC95E00E94390C10926E04109208
:101BE0006D0480917C028093B200809170008160CE
:101BF000809370008FB780688FBF81E08093C005AD
:101C0000A89563E072E081EC95E00E94C02160E855
:101C100075E0CE0101960E944815BE016F5F7F4FAF
:101C200082E895E00E945120CE0101960E94F020AA
:101C300061E172E0CE0101960E940F21BE016F5F4B
:101C40007F4F82E895E00E9437208C01CE010196FB
:101C50000E94F0200F3F1F4F09F443C082E20E9410
:101C6000AC240196F1F418861F821A8619861C8608
:101C70001B866AE070E0CE0107960E9496208111D3
:101C800005C0CE0107960E94BD2031C08AE090E0D9
:101C90009C878B8768EF71E08F8198850E94553112
:101CA00026C082E20E94AC248C0161E172E0CE0188
:101CB00001960E940F21BE016F5F7F4F82E895E081
:101CC0000E943720AC01445F5F4F980162E875E0E5
:101CD000CE0107960E942421CE0101960E94F02099
:101CE00006C06DE472E0CE0107960E940F210B85BD
:101CF0001C850115110519F41092850210C00F31D1
:101D0000110510F00FE110E06F817885A80185E8DA
:101D100092E00E945F39F801EB57FD4F1082CE012F
:101D200007960E94F020A895109284026FEE71E051
:101D300081EC95E00E94C02160E875E0CE0101963B
:101D40000E944815BE016F5F7F4F82E895E00E94B8
:101D50005120CE0101960E94F02069E172E0CE018F
:101D600001960E940F21BE016F5F7F4F82E895E0D0
:101D70000E9437208C01CE0101960E94F0200F3F77
:101D80001F4F01F18CE20E94AC248C0169E172E0EA
:101D9000CE0101960E940F21BE016F5F7F4F82E846
:101DA00095E00E943720AC014A5F5F4F980162E8DE
:101DB00075E0CE0107960E942421CE0101960E9473
:101DC000F02006C06DE472E0CE0107960E940F215C
:101DD000CE0107960E942C2060938402CE010796C4
:101DE0000E94F020A89580E062960FB6F894DEBFBE
:101DF0000FBECDBFDF91CF911F910F91FF90EF905C
:101E0000DF90CF90BF90AF909F908F900895CF922A
:101E1000DF92EF92FF920F931F93CF93DF9377FFA1
:101E20001DC06A017B01EC016DE20E94B9218C01A9
:101E300044275527BA014C195D096E097F092AE02C
:101E4000CE010E94F921800F911FDF91CF911F9148
:101E50000F91FF90EF90DF90CF9008952AE0DF91EF
:101E6000CF911F910F91FF90EF90DF90CF900C9446
:101E7000F921EF92FF920F931F93CF93DF93CDB78A
:101E8000DEB767970FB6F894DEBF0FBECDBF0E94D6
:101E90001424009164051091650560E272E081EC04
:101EA00095E00E942423B801CE0101960E944815B6
:101EB000780182E0E80EF11CBE016F5F7F4FC70121
:101EC0000E948A20CE0101960E94F0206BE272E00F
:101ED00081EC95E00E9424236CE675E081EC95E0AE
:101EE0000E94242365E372E081EC95E00E942423A4
:101EF000B801CE0101960E944815BE016F5F7F4F69
:101F0000C7010E948A20CE0101960E94F0206AE05B
:101F100081EC95E00E94B9218091BE05882359F09B
:101F200064E072E081EC95E00E9424236AE081EC99
:101F300095E00E94B9218091AC05882359F067E0B3
:101F400072E081EC95E00E9424236AE081EC95E048
:101F50000E94B9216AE081EC95E00E94B9216EEF00
:101F600071E081EC95E00E94242340917802509129
:101F7000790260917A0270917B0222E081EC95E017
:101F80000E9442226AE081EC95E00E94B92161E062
:101F900072E081EC95E00E9424234091C10350E05F
:101FA00060E070E081EC95E00E94070F6CE472E065
:101FB00081EC95E00E94242300E010E06CE472E0E4
:101FC00081EC95E00E942423BE016F5F7F4FC80122
:101FD0000E945108BE016F5F7F4F81EC95E00E9427
:101FE00024230F5F1F4F0530110541F7A89500917D
:101FF00064051091650566E372E081EC95E00E944E
:10200000242364E670E080E090E00E94031E6AE111
:1020100081EC95E00E94B921B801CE0142960E9460
:102020004815BE016E5E7F4FC80102960E948A204D
:10203000CE0142960E94F02068E372E0CE01429603
:102040000E940F21CE0142960E94F02081E0679607
:102050000FB6F894DEBF0FBECDBFDF91CF911F91B9
:102060000F91FF90EF90089560E084E00E94971D2B
:1020700068EE73E080E090E00E94031E61E084E07F
:102080000C94971DEF92FF920F931F93CF93DF93C2
:102090007C018B01C9E8D5E08D819E810E944316A9
:1020A000B7018D819E810E94D61540E06EEB8D8137
:1020B0009E810E9494158D819E810E942716F801B1
:1020C00080838D819E810E942716F80181838D81F6
:1020D0009E810E942716F80182838D819E810E9435
:1020E0002716F80183838D819E810E942716F801AF
:1020F00084838D819E810E942716F80185838D81BE
:102100009E810E942716F80186838D819E810E9400
:102110002716F80187838D819E810E942716F8017A
:1021200080878D819E81DF91CF911F910F91FF90CC
:10213000EF900C9443164F925F926F927F928F9222
:102140009F92AF92BF92CF92DF92EF92FF92CF9386
:10215000DF93CDB7DEB761970FB6F894DEBF0FBE41
:10216000CDBFE0918E05F0918F05138615861486FC
:10217000DF011B96CF0103961E92A817B907E1F75E
:10218000BE01665F7F4FCF010E947916882329F038
:1021900067E0CE010A960E948715BE016F5F7F4FF0
:1021A000CE010A960E94421068E0CE0101960E947C
:1021B0008715998589138FC039812A81832F90E0F3
:1021C000922B2A852232F1F1A8F5203109F090C036
:1021D000F884BC0175956795072E000C880B990B48
:1021E0000E94443420E030E040E85EE30E94C835BD
:1021F0004B015C018F2D90E02F81821B9109BC0166
:10220000990F880B990B0E9444342B013C016F2DD0
:1022100070E080E090E00E9442349B01AC01C30179
:10222000B2010E9435369B01AC01C501B4010E9488
:10223000C9353EC0283231F02B3309F059C030FD8A
:1022400051C01CC02D812F33B1F1A0F42F3109F002
:102250004FC0BC0133E0759567953A95E1F7072EBD
:10226000000C880B990B0E94443420E030E040E0E1
:102270005FE31CC02F3569F02F37D1F5BC01990FF2
:10228000880B990B0E94443420E030E040E85DE385
:102290000DC0BC0175956795072E000C880B990B36
:1022A0000E94443420E030E040E05EE30E94A3342A
:1022B0006B017C011DC0BC0175956795759567958F
:1022C000072E000C880B990B0E94443420E030E06C
:1022D00040E85EE3EBCFC12CD12C9EEFE92E92ECCF
:1022E000F92E06C0C12CD12C80ECE82E8FE7F82EF9
:1022F000C701B60161960FB6F894DEBF0FBECDBF21
:10230000DF91CF91FF90EF90DF90CF90BF90AF9093
:102310009F908F907F906F905F904F9008958091E5
:102320008E0590918F050E94431640E06CEC8091E1
:102330008E0590918F050E9494154091890564E463
:1023400080918E0590918F050E94941580918B0548
:102350008823E9F080918A058A3049F08B3061F05A
:10236000893079F46EE570E080E090E00EC06CEBAF
:1023700070E080E090E009C067E771E080E090E005
:1023800004C06EEE72E080E090E00C94031E0895AD
:102390009091780380917703981750F4E92FF0E03B
:1023A000E95AFC4F208130E09F5F9093780302C090
:1023B0002FEF3FEFC90108958091770390E02091BE
:1023C0007803821B9109089585ED8093BC0080916C
:1023D000BC0084FDFCCF1092360308954091EB02BF
:1023E000262F30E0240F311D21323105DCF42091FD
:1023F00036032430C9F4FC0180E090E0861758F4DD
:102400003091EB022191DC01A753BD4FA30FB11D09
:102410002C930196F3CF8091EB02680F6093EB024F
:1024200080E0089581E0089582E00895CF92DF92E0
:10243000EF92FF920F931F93CF93DF937C01262F90
:10244000972F8A018091C802882391F0C62FD72F39
:102450006E01C40ED51ECC15DD0571F06991D70152
:10246000ED91FC910190F081E02DC7010995F3CF2A
:10247000642F822F0E94EE11C801DF91CF911F912E
:102480000F91FF90EF90DF90CF900895CF93DF935F
:102490001F92CDB7DEB769832091C8022223D1F005
:1024A0002091C702203240F021E030E0FC0133836C
:1024B000228380E090E015C08091C602E82FF0E012
:1024C000E95CFC4F998190838F5F8093C602809373
:1024D000C70205C061E0CE0101960E94EE1181E0C5
:1024E00090E00F90DF91CF910895FC0190810180E1
:1024F000F281E02D892F809560FF12C0F89422812F
:10250000822382838181892B8183A3E2B0E01197AA
:10251000F1F78281982B9283789487ED90E011C037
:10252000F8942281822382838181892B8183AFEF7A
:10253000B0E01197F1F78281982B928378948FE025
:1025400090E00197F1F7089521E001C0220F6A950C
:10255000EAF7DC011C962C931C971A965C934E9319
:102560001997ED91FC910484F585E02D60E00994C4
:10257000EF92FF920F931F93CF93DF937C018C0117
:10258000C0E0D0E0F80186890E946E1D892B51F4CD
:102590002696CC0FDD1FCC0FDD1FCE0DDF1D8881F1
:1025A000998108C021960C5F1F4FC530D10551F7A6
:1025B00080E090E0DF91CF911F910F91FF90EF901D
:1025C0000895EF92FF920F931F93CF938C01FC011C
:1025D000759684E0C0E060FF02C09081C92B6695CB
:1025E000815031968111F7CF413011F4F8014489BF
:1025F000F8018585C82BC42B7801FEE0EF0EF11C95
:10260000F80162896C2BC7010E949306F801628968
:1026100060956C23C701CF911F910F91FF90EF90B0
:102620000C9493060F931F93CF93DF93062F0F7095
:10263000423019F440E0602F10C0142F262FEC0117
:1026400030E0B90184E0759567958A95E1F7CE0190
:102650000E94E112412F602FCE01DF91CF911F9197
:102660000F910C94E112FC0184858823A9F0218547
:1026700032852115310519F4611106C007C02130DA
:10268000310521F4611102C0858701C01586658579
:10269000CF010E960C94930608952091C702909155
:1026A000C502213208F049C0809136038111FCCF68
:1026B00032E030933603609335033FEF30933403B9
:1026C0001092330320933203A7E3B3E042E153E0D7
:1026D000FA013E2F341B321718F43D913193F9CF94
:1026E0001092110320911103990F922B90931103D3
:1026F00090911003913061F41092100390911103A6
:102700009093BB009091BC0093FDF8CF95EC01C075
:1027100095EE9093BC00909136039230E1F3909146
:1027200034039F3F79F080913403803241F08091EF
:102730003403803331F084E005C081E003C082E0DF
:1027400001C083E01092C6021092C7021092C80224
:102750000895809136038111FCCF842F413208F017
:1027600080E291E090933603909335032FEF20930E
:10277000340310923303280F2093320390931103F4
:1027800090911103660F692B6093110390911003D0
:10279000913061F410921003909111039093BB005B
:1027A0009091BC0093FDF8CF95EC01C095EE90930D
:1027B000BC00909136039130E1F390913303981768
:1027C00010F480913303A2E1B3E027E533E0F9018F
:1027D0009E2F921B981718F49D919193F9CF109208
:1027E000780380937703089510927803109277030B
:1027F0001092C6021092C7021092360381E08093B5
:1028000035031092100361E082E10E94971D61E0A0
:1028100083E10E94971DE9EBF0E080818E7F808349
:1028200080818D7F808388E48093B80085E48093E5
:10283000BC0008951F920F920FB60F9211242F9390
:102840003F934F935F936F937F938F939F93AF9338
:10285000BF93EF93FF938091B900887F803609F48E
:102860009CC068F5883209F45BC090F4803109F4AB
:1028700054C038F4882309F4F6C0883009F44DC0F8
:10288000F6C0883109F44CC0803209F45DC0EFC055
:10289000803409F468C048F4803309F455C08833A3
:1028A00009F0E5C080933403D8C0803509F44FC0E7
:1028B000883509F45DC0883409F0D9C0D6C088399C
:1028C00009F4C7C0A8F4883709F467C038F488361B
:1028D00009F463C0803709F460C0C9C0883809F4BE
:1028E000B8C0803909F45FC0803809F0C0C05BC04F
:1028F000803B09F486C038F4803A09F466C0883A0F
:1029000009F47FC0B4C0803C09F4A7C0883C09F436
:10291000A4C0883B09F48AC0AAC08091110310C0EA
:102920009091330380913203981770F5E09133034F
:1029300081E08E0F80933303F0E0EE5EFC4F8081E8
:102940008093BB0085EC86C0809334038EC0E091F9
:10295000330381E08E0F809333038091BB00F0E05E
:10296000EE5EFC4F808390913303809132036EC002
:10297000E091330381E08E0F809333038091BB009D
:10298000F0E0EE5EFC4F80838091350381116DC0D5
:1029900081E08093100384EA61C083E08093360372
:1029A00010920F03CFCF80910F03803208F051C0F7
:1029B000E0910F0381E08E0F80930F038091BB00A5
:1029C000F0E0E151FD4F8083BDCF85EC8093BC00EA
:1029D0001092360380910F03803230F4E0910F03A0
:1029E000F0E0E151FD4F108260910F0370E0E09143
:1029F000ED02F091EE028FEE92E0099510920F0336
:102A000036C084E0809336031092EC021092EB0201
:102A1000E091E902F091EA0209958091EB028111BF
:102A200005C081E08093EB021092C902E091EC02B4
:102A300081E08E0F8093EC02F0E0E753FD4F808140
:102A40008093BB009091EC028091EB02981708F400
:102A500079CF85E88093BC000AC085EC8093BC00E8
:102A60001092360304C0109234030E94E411FF91C7
:102A7000EF91BF91AF919F918F917F916F915F91F6
:102A80004F913F912F910F900FBE0F901F9018956F
:102A90000F931F93CF93DF938C01EB0188858823DD
:102AA00031F06AEC71E0C8010E940F212AC019823E
:102AB000188281EC95E00E94B11F28813981892B11
:102AC00081F4203A8FE0380764F46DE070E080E034
:102AD00090E00E94031E88819981019699838883E2
:102AE000E8CF293D3E4014F081E0888781EC95E0F5
:102AF0000E94B11F892B29F061EC75E0C8010E948A
:102B00007921C801DF91CF911F910F910895DC01C8
:102B1000E0E0615038F08D91E827F0E0EC5DFD4F8A
:102B2000E491F7CF8E2F0895CF92DF92EF92FF922C
:102B30000F931F93CF93DF931F92CDB7DEB76C0136
:102B4000E62E08E010E0FF24F39461E08F2D8E2143
:102B500009F460E0C60149830E947512FF0C015020
:102B6000110949810115110581F7411115C0F8942A
:102B7000D6011196ED91FC91129791818C918095DF
:102B8000892381831196ED91FC91129792818C910A
:102B900080958923828378940F90DF91CF911F9144
:102BA0000F91FF90EF90DF90CF900895CF92DF923A
:102BB000EF92FF920F931F93CF93DF931F92CDB7A6
:102BC000DEB78C01F62E40E065E579830E9494150E
:102BD000CF2C7981D72E760188E0E80EF11CF60122
:102BE00061916F0140E0C8010E949415CE14DF048A
:102BF000B1F70F90DF91CF911F910F91FF90EF9060
:102C0000DF90CF900895FC0190810180F281E02D4A
:102C1000F8948181892B81832281892F80952823B3
:102C20002283A7E0B0E01197F1F72181822381830D
:102C3000A3E2B0E01197F1F780817894EFECF0E037
:102C40003197F1F7982381E009F480E00895EF923D
:102C5000FF920F931F93CF93DF937C0108E010E066
:102C6000C0E0D1E0C7010E9403168111CD2BDD0F1A
:102C700001501109B9F78C2FDF91CF911F910F915E
:102C8000FF90EF900895FC0190810180F281E02D8A
:102C9000F8948181292F20958223818378948DE770
:102CA00043E050E0815021F1DA011197F1F73081D2
:102CB0003923C1F3F8948281822382838181892B15
:102CC00081837894ABE7B7E01197F1F7F8948181AD
:102CD00028232183A3E1B1E01197F1F780819823A4
:102CE00081E009F080E07894E3E6F6E03197F1F7CF
:102CF0000895AF92BF92CF92DF92EF92FF920F931F
:102D00001F93CF93DF931F92CDB7DEB75C01E62E02
:102D1000D72EFC01858581115DC0C5010E94431637
:102D2000811105C0F5011386158614866BC040E03D
:102D300060EFC5010E94941501E0F12CC12C11E057
:102D4000C5010E940316682FC50169830E940316FE
:102D50006981613019F48130B9F433C04F2D50E0EE
:102D600068131BC0F5018385181730F4E40FF51FB5
:102D70008381802349F402C0181731F060E01930D4
:102D800058F4F501148708C0F501EF0DF11D83819A
:102D9000802B838361E009C0C12EF501E40FF51F8C
:102DA0009381802F809589238383C5010E947512AA
:102DB0001F5F000F11F4F39401E0F7E0FF1508F036
:102DC000BFCF113438F0F501C386C11015C081E0C2
:102DD000858712C0F50113861586148680E0D5011B
:102DE0001396EE2DFD2D9501255F3F4F9D919193FB
:102DF000A217B307D9F706C0F5018381882351F3E1
:102E000081E0EDCF0F90DF91CF911F910F91FF9057
:102E1000EF90DF90CF90BF90AF900895CF92DF9268
:102E2000FF920F931F93CF93DF931F92CDB7DEB71F
:102E30008C010D5F1F4FF62E6B018C2D8F1984179F
:102E400058F4C80149830E946135F60181936F01EE
:102E50000F5F1F4F4981F1CF0F90DF91CF911F91ED
:102E60000F91FF90DF90CF900895CF92DF92FF9265
:102E70000F931F93CF93DF931F92CDB7DEB78C01D3
:102E80000D5F1F4FF62E6B018C2D8F19841758F490
:102E9000F60161916F01C80149830E9469350F5F96
:102EA0001F4F4981F1CF60E080E090E00F90DF910B
:102EB000CF911F910F91FF90DF90CF900C946935C7
:102EC000CF93DF931F92CDB7DEB769830B96FC01DA
:102ED00085919491009731F041E0BE016F5F7F4F83
:102EE0000E9435170F90DF91CF910895E0919C04D7
:102EF000F0919D04309709F009940895833081F092
:102F000028F4813099F08230A1F008958730A9F03B
:102F10008830B9F08430D1F4809180008F7D03C077
:102F2000809180008F7780938000089584B58F779B
:102F300002C084B58F7D84BD08958091B0008F77E5
:102F400003C08091B0008F7D8093B00008951F93DF
:102F5000CF93DF93182FD92FC62F40E150E060E2C6
:102F600070E080EA94E00E944839E12FFD2FEC0FD9
:102F7000F11DEC0FF11D659174916F5F7F4F4FE074
:102F800050E080EA94E00E944C3120E130E040E0E3
:102F900050E061E070E080EA94E0DF91CF911F9112
:102FA0000C9476170F931F93CF938C01C62F40E19B
:102FB00050E060E270E080EA94E00E944839C73057
:102FC000D9F1C830D9F1C11107C0F80180814AE0B8
:102FD00060EA74E090E013C0C13049F44AE060EA6E
:102FE00074E0F801808191810E945C3135C0C2306B
:102FF00049F44AE060EA74E0F801808191810E941E
:10300000AD312AC0C33059F4F801608171818281E9
:1030100093812AE040EA54E00E9467311DC0C43029
:1030200079F4F80160817181828193812AE040EA1C
:1030300054E00E948B3110C022E003C023E001C0A5
:1030400021E042E0420FF801608171818281938129
:1030500000EA14E00E94053120E130E040E050E059
:1030600061E070E080EA94E0CF911F910F910C94A1
:10307000761740E150E060E270E080EA94E00E9460
:1030800048398091B204813039F48FE49EE6909300
:10309000A1048093A00409C08FE496E6A6E680937D
:1030A000A0049093A104A093A20420E130E040E0AA
:1030B00050E061E070E080EA94E00C947617CF93E2
:1030C000DF93CDB7DEB729970FB6F894DEBF0FBEFA
:1030D000CDBFFC012081203121F1BE016F5F7F4F08
:1030E0000E94421068E0CE0101960E9487159985E2
:1030F000891315C08D818F3359F018F48F3189F001
:1031000009C08F3519F08F3741F004C08BE00AC039
:103110008AE008C0807F803F11F48CE003C080E02B
:1031200001C089E029960FB6F894DEBF0FBECDBF6F
:10313000DF91CF910895CF92DF92EF92FF920F939C
:103140001F93CF93DF93FC017196C491C1503196C8
:10315000C590D490E62EF12CF701EE0FFF1FEC0D79
:10316000FD1D8591949190937C0480937B0400E0F5
:1031700010E0D0E040E150E060E270E080EA94E0EE
:103180000E94483921E030E040E050E0011511058F
:1031900029F460E070E08DE392E004C061E070E04B
:1031A0008BE092E00E947617F801EE0DFF1DCE171E
:1031B000DF0764F0EE0FFF1FEC0DFD1D65917491AC
:1031C00040E150E080EA94E00E944C3120E130E0A0
:1031D00041E050E0B80180EA94E00E9476170130A7
:1031E000110519F001E010E0C5CFDF91CF911F91DB
:1031F0000F91FF90EF90DF90CF9008950F931F9362
:10320000CF93DF93EC01FC0170961491113009F01B
:1032100098C01093780440E150E0BC0180EA94E04B
:103220000E944C3120E130E040E050E060E070E08E
:1032300080EA94E00E947617FE017296859194913F
:10324000FC0164913996A591B491611104C08C91EF
:103250008093B2046FC08FEF860F823040F48D915F
:103260009C9111979093B8048093B70463C08DEF3D
:10327000860F823070F40D911D912D913C91139722
:103280000093B3041093B4042093B5043093B604B0
:1032900051C0693031F5FD013396C591D491FD01DE
:1032A00085919491FC018081FD013296A4919E014B
:1032B00060E090E09A1761F0F90145915491FA01AC
:1032C0004491481301C0692F9F5F2E5F3F4FF2CF9B
:1032D0006093B204CE01DF91CF911F910F910C94B6
:1032E000A7176A30D1F4FD013196C591D491FD0143
:1032F000A491888190E002C095958795AA95E2F700
:1033000080FF03C01093B20402C01092B204DF9198
:10331000CF911F910F910C9439180D911D912D9102
:103320003C9113970093B9041093BA042093BB0403
:103330003093BC04CD01DF91CF911F910F910C947C
:10334000D217111134C061112EC020917D0430912B
:103350007E048217930739F1809181049091820451
:10336000892B79F08091830490918404892B61F0FA
:103370008091850490918604892B79F482E090E015
:1033800005C080E090E002C081E090E0880F991FC6
:10339000FC01EF57FB4F31832083D0937E04C09311
:1033A0007D0410929B0460919B04CE0114C01230E6
:1033B000D9F46296FE0185919491009711F0FC0179
:1033C000099580917704882361F060919B04809136
:1033D0007D0490917E04DF91CF911F910F910C9409
:1033E0009B1881E080937A04DF91CF911F910F9118
:1033F00008954F925F926F927F928F929F92AF92B9
:10340000BF92CF92DF92EF92FF920F931F93CF93D1
:10341000DF93CDB7DEB764970FB6F894DEBF0FBE6B
:10342000CDBF042F4296FC0185919491FC0114912B
:1034300035964590559065907490FC013196259194
:10344000359145915491298B3A8B4B8B5C8B643031
:1034500009F424C3633008F051C241E0613009F43B
:1034600040E0193029F5FC01399625913491F90194
:1034700032969491319625913491EFEFE90F909126
:10348000B204442339F0911103C0E093B2040AC09E
:10349000915006C09E1303C01092B20403C09F5FF8
:1034A0009093B2046091B204C9010E94A717FFC2B1
:1034B0001A3059F481E09091B204913009F480E01F
:1034C0008093B2040E943918F2C2442319F08FEF9E
:1034D0009FEF02C081E090E02091B0043091B104F0
:1034E000829F5001839FB00C929FB00C1124B501B4
:1034F0000B2C000C880B990B0E944434163029F4D5
:1035000020E030E040E251E40DC0173029F420E023
:1035100030E048EC52E406C0183031F420E030E0EE
:103520004AE754E40E943536C988DA88EB88FC887B
:103530002DEF200F2230B8F41092BD049B01AC0196
:103540006091B9047091BA048091BB049091BC045D
:103550000E94C9356093B9047093BA048093BB0488
:103560009093BC041DC00334C9F41092B9041092A6
:10357000BA041092BB041092BC041092B3041092CF
:10358000B4041092B5041092B6041092B8041092CC
:10359000B7041092B204A12CB12CC8C0A12CB12C3C
:1035A00000530A3008F0C2C08091BD04823008F494
:1035B00042C08091B204880F982F990F990F890FFC
:1035C0008093B2042091B7043091B8044AE0429F3E
:1035D000C001439F900D11249093B8048093B704C9
:1035E0002091B3043091B4044091B5045091B604D5
:1035F000AAE0B0E00E9477356093B3047093B404FE
:103600008093B5049093B60420E030E040E251E4AA
:103610006091B9047091BA048091BB049091BC048C
:103620000E94A3346093B9047093BA048093BB04DE
:103630009093BC0418C08130B1F41092B30410927E
:10364000B4041092B5041092B6041092B80410920B
:10365000B7041092B2041092B9041092BA041092F6
:10366000BB041092BC048091B204800F8093B2041A
:103670008091B7049091B804800F911D9093B80485
:103680008093B7048091B3049091B404A091B504E1
:10369000B091B604800F911DA11DB11D8093B3049C
:1036A0009093B404A093B504B093B604163061F4BB
:1036B000602F000F770B880B990B0E94443420E099
:1036C00030E040E251E40DC0173011F5602F000FDB
:1036D000770B880B990B0E94443420E030E048ECD3
:1036E00052E40E9435369B01AC016091B90470919F
:1036F000BA048091BB049091BC040E94C9356093C8
:10370000B9047093BA048093BB049093BC04AAC01C
:10371000183061F4602F000F770B880B990B0E9413
:10372000443420E030E04AE754E4DBCF111123C0F9
:103730008091B2048A0D411451046104710429F48A
:10374000C114D104E104F10489F090E0A0E0B0E0FC
:10375000C816D906EA06FB0614F4898907C0841541
:103760009505A605B70514F4D301C2018093B204F0
:1037700082EB94E0BFC0113011F0123099F58091C6
:10378000B7049091B8048A0D9B1D41145104610443
:103790007104E1F4C114D104E104F104B9F490938B
:1037A000B8048093B7040FC06C017D0184159505A2
:1037B000A605B70514F4730162019C2D8D2D90931D
:1037C000B7048093B80487EB94E094C0092E000CF2
:1037D000AA0BBB0BC816D906EA06FB062CF799897B
:1037E0008A89EDCF133011F01430E1F5A501BB0C3F
:1037F000660B770B8091B3049091B404A091B5044B
:10380000B091B604840F951FA61FB71F4114510431
:103810006104710471F4C114D104E104F10449F4A8
:103820008093B3049093B404A093B504B093B6040A
:1038300016C0C816D906EA06FB064CF06C017D01DD
:1038400084159505A605B70514F473016201C092AD
:10385000B304D092B404E092B504F092B60483EBC2
:1038600094E048C0411451046104710429F4C11466
:10387000D104E104F104E1F18090B9049090BA041C
:10388000A090BB04B090BC04C701B6010E944434B0
:10389000D62EE72EF82E092F262F372F482F592FF7
:1038A000B401C5010E94DD361816B4F0C301B2019F
:1038B0000E944434D62EE72EF82E092F262F372FBC
:1038C000482F592FB401C5010E943D3487FD04C023
:1038D000D82CE92CFA2C0B2D8D2D9E2DAF2DB02F31
:1038E0008093B9049093BA04A093BB04B093BC0432
:1038F00089EB94E0612F0E94D217D9C0633009F0A0
:10390000D6C0FC013996A591B491193099F4FD0106
:103910003396259134914091B204F901E40FF11DE1
:10392000E40FF11D65917491FB016491FD01A59176
:10393000B4912AC01A3021F5FD0131966591749138
:10394000FD01A4912091B204FB01B081222349F032
:1039500041E050E001C0440FAA95EAF74B2B4083A9
:103960000AC021E030E001C0220FAA95EAF72095B5
:103970002B23FB012083FB0160810E9460178EC016
:10398000111104C06091B2046C93F7CF1230A1F40E
:103990002091B7043091B8042D933C93388B2F8736
:1039A000FC013B9685919491009709F477C042E021
:1039B000BE01615F7F4F70C01130A1F42091B70448
:1039C0003091B8042D933C933E872D87FC013B96A4
:1039D00085919491009709F461C042E0BE01635F54
:1039E0007F4F5AC01430E9F44091B3045091B404AD
:1039F0006091B5047091B6044D935D936D937C9383
:103A0000139749875A876B877C87FC013B96859182
:103A10009491009709F442C044E0BE01675F7F4F74
:103A20003BC01330E1F44091B3045091B404609171
:103A3000B5047091B6044D935D936D937C93139789
:103A40004D835E836F837887FC013B9685919491CB
:103A5000009721F144E0BE016B5F7F4F1DC0153020
:103A6000E8F04091B9045091BA046091BB047091A0
:103A7000BC044D935D936D937C93139749835A8354
:103A80006B837C83FC013B9685919491009731F088
:103A900044E0BE016F5F7F4F0E943517109278049B
:103AA00061E080917D0490917E040E94FE186496EE
:103AB0000FB6F894DEBF0FBECDBFDF91CF911F913F
:103AC0000F91FF90EF90DF90CF90BF90AF909F90BD
:103AD0008F907F906F905F904F900895CF93DF937A
:103AE000282F30E0F901E25DFC4F8491F901EF5598
:103AF000FB4FD491F901E357FB4FC491CC2391F0D4
:103B000081110E947E17EC2FF0E0EE0FFF1FED57A2
:103B1000FB4FA591B491EC91ED2381E090E021F46D
:103B200080E002C080E090E0DF91CF9108951F9384
:103B3000CF93DF93282F30E0F901E25DFC4F8491B1
:103B4000F901EF55FB4FD491F901E357FB4FC491B5
:103B5000CC23C9F0162F81110E947E17EC2FF0E0C4
:103B6000EE0FFF1FE758FB4FA591B4918FB7F89464
:103B7000111105C09C91ED2FE095E92302C0EC9155
:103B8000ED2BEC938FBFDF91CF911F910895CF93D1
:103B9000DF9390E0FC01EF55FB4F2491FC01E357CC
:103BA000FB4F8491882361F190E0880F991FFC01FD
:103BB000EC5DFC4FC591D491FC01E758FB4FA591FA
:103BC000B491611109C09FB7F89488812095822330
:103BD0008883EC912E230BC0623061F49FB7F89478
:103BE0003881822F809583238883EC912E2B2C9310
:103BF0009FBF06C08FB7F894E8812E2B28838FBF14
:103C0000DF91CF9108958F929F92AF92BF92CF9202
:103C1000DF92EF92FF926B017C010E94DE244B0148
:103C20005C01C114D104E104F104F1F00E94DE242E
:103C3000DC01CB0188199909AA09BB09883E934088
:103C4000A105B10570F321E0C21AD108E108F1081D
:103C500088EE880E83E0981EA11CB11CC114D1040B
:103C6000E104F10419F7DDCFFF90EF90DF90CF90E2
:103C7000BF90AF909F908F9008950895CF92DF925C
:103C8000EF92FF920F931F93CF93DF936C017A0112
:103C90008B01C0E0D0E0CE15DF0589F0D8016D9131
:103CA0008D01D601ED91FC910190F081E02DC601CE
:103CB0000995892B11F47E0102C02196ECCFC70132
:103CC000DF91CF911F910F91FF90EF90DF90CF90F8
:103CD0000895FC01538D448D252F30E0842F90E012
:103CE000821B930B541710F0CF96089501970895F7
:103CF000FC01918D828D981761F0828DDF01A80FF4
:103D0000B11D5D968C91928D9F5F9F73928F90E015
:103D100008958FEF9FEF0895FC01918D828D981784
:103D200031F0828DE80FF11D858D90E008958FEFC1
:103D30009FEF0895FC01918D228D892F90E0805C8A
:103D40009F4F821B91098F739927089582EC93E00E
:103D50000E949A1E21E0892B09F420E0822F089509
:103D6000FC01848DDF01A80FB11DA35ABF4F2C9118
:103D7000848D90E001968F739927848FA689B789E7
:103D80002C93A089B1898C9180648C93938D848DC0
:103D9000981306C00288F389E02D80818F7D80838F
:103DA0000895EF92FF920F931F93CF93DF93EC014F
:103DB00081E0888F9B8D8C8D981305C0E889F989E7
:103DC000808185FD24C0F62E0B8D10E00F5F1F4F04
:103DD0000F731127E02E8C8DE8120CC00FB607FC74
:103DE000FACFE889F989808185FFF5CFCE010E945D
:103DF000B01EF1CF8B8DFE01E80FF11DE35AFF4F8E
:103E0000F0820B8FEA89FB898081806207C0EE898E
:103E1000FF896083E889F98980818064808381E0FB
:103E200090E0DF91CF911F910F91FF90EF90089557
:103E3000CF93DF93EC01888D8823C9F0EA89FB8951
:103E4000808185FD05C0A889B9898C9186FD0FC048
:103E50000FB607FCF5CF808185FFF2CFA889B9891D
:103E60008C9185FFEDCFCE010E94B01EE7CFDF9190
:103E7000CF91089580E090E0892B29F00E94A61E42
:103E800081110C940000089520915002309151024C
:103E90002817390771F490914E0280914F029817BC
:103EA00041F0E0914E02F0E0E758FC4F808190E055
:103EB00008958FEF9FEF089508951F93CF93DF9399
:103EC000DC015C962D913C915D972115310539F40B
:103ED00081E090E013969C938E9312973DC051968B
:103EE000ED91FC91529750969C915097892F809517
:103EF0001FB75E964C915E9741FB772770F941FDA5
:103F00006095F8944081772311F0492B01C0482334
:103F10004083E9012197F1F748E0508160FF02C03A
:103F2000592B01C058235083E9012197F1F7669579
:103F3000415099F7772321F090818923808303C032
:103F40008081982B90831FBF5C968D919C915D978B
:103F50000197F1F721E030E0C901DF91CF911F9186
:103F6000089520915002309151022817390771F4B9
:103F700080914F0220914E0290E0805C9F4F821B07
:103F8000910960E470E00E940737089580E090E0B6
:103F90000895209150023091510228173907B9F441
:103FA00090914E0280914F02981789F0E0914E0255
:103FB000F0E0E758FC4F808120914E0230E02F5F07
:103FC0003F4F2F73332720934E0290E008958FEFD9
:103FD0009FEF08950895E091780380917703E817A3
:103FE00030F4F0E0E95AFC4F808190E008958FEFC3
:103FF0009FEF08950E943A390F931F93CF93DF9359
:10400000EC010E940325688779878A879B87E8816E
:10401000F9810284F385E02DCE01099597FF17C041
:104020000E940325088519852A853B85DC01CB0183
:10403000801B910BA20BB30B0C811D812E813F8144
:1040400080179107A207B30710F38FEF9FEFDF915F
:10405000CF911F910F910895FC018081918100976C
:1040600011F00C94253160E070E0CB010895CF93FE
:10407000DF93FC0124813581232B71F0FB01DC01EE
:10408000CD91DC9160817181CE010E9479390097D8
:1040900019F08C1B9D0B02C08FEF9FEFDF91CF912A
:1040A00008950F931F93CF93DF938C01EB01FC01D5
:1040B000808191810097B1F06881798161157105E6
:1040C00079F0428153812C813D814217530740F0A2
:1040D0000E9458398C819D81F8019583848313C097
:1040E0000E94D83788819981F801918380838A81E1
:1040F0009B81938382838C819D81958384831982A4
:1041000018821B821A821D821C82DF91CF911F911F
:104110000F910895CF93DF93EC018617970711F065
:104120000E945120CE01DF91CF9108950F931F93EC
:10413000CF93DF93EC0188819981009729F02A8140
:104140003B812617370788F48B016F5F7F4F0E94F2
:104150007038009761F0998388831B830A832C81D0
:104160003D81232B11F4FC01108281E001C080E02D
:10417000DF91CF911F910F910895CF93DF93EC01C1
:1041800088819981009711F00E94D837198218828E
:104190001D821C821B821A82DF91CF910895EF92BB
:1041A000FF920F931F93CF93DF93EC017B018A0162
:1041B000BA010E949620811104C0CE010E94BD2048
:1041C00007C01D830C83B701888199810E945839EB
:1041D000CE01DF91CF911F910F91FF90EF90089545
:1041E000FC01808191810C94D837FB01DC01119690
:1041F0001C921E9213961C921E92129715961C9258
:104200001E9214978617970749F060817181611596
:10421000710521F0448155810C94CF200895FC0153
:104220001182108213821282158214826115710527
:1042300051F0FB0101900020E9F73197AF01461BD7
:10424000570B0C94CF200895BF92CF92DF92EF923C
:10425000FF920F931F93CF93DF937C016B01EA01D1
:1042600089012417350720F48D2FE901042F182F19
:104270006DE472E0C7010E940F21D60114968D9162
:104280009C911597C817D90748F58017910708F42E
:104290008C01D601ED91FC911197E00FF11FB080D8
:1042A00010824D915C91BA016C0F7D1F61157105F3
:1042B00061F0FB0101900020E9F73197AF01461B47
:1042C000570BC7010E94CF2003C0C7010E94BD2029
:1042D000D601ED91FC91E00FF11FB082C701DF9193
:1042E000CF911F910F91FF90EF90DF90CF90BF90F3
:1042F0000895CF92DF92EF92FF920F931F93CF9387
:10430000DF9300D0CDB7DEB78C016B016DE472E0B6
:104310000E940F21C6010E94FC1F97FD1EC08983C9
:104320001A82F801E480F580FFEFEF1AFF0AB70167
:10433000C8010E949620882369F3F8012081318109
:1043400084819581BE016F5F7F4F820F931F0E9412
:104350005839F801F582E482DDCFC8010F900F9043
:10436000DF91CF911F910F91FF90EF90DF90CF9051
:104370000895DC01ED91FC910190F081E02D09940C
:10438000EF92FF920F931F93CF93DF938C017B01EA
:10439000C0E0D0E0F701EC0FFD1F6491662361F0EF
:1043A000D801ED91FC910190F081E02DC8010995B3
:1043B000892B11F02196EECFCE01DF91CF911F9185
:1043C0000F91FF90EF9008956115710579F0FB0151
:1043D00001900020E9F73197AF01461B570BDC0134
:1043E000ED91FC910280F381E02D099480E090E052
:1043F00008954F925F926F927F92EF92FF920F9388
:104400001F93CF93DF93CDB7DEB7A1970FB6F89484
:10441000DEBF0FBECDBF7C01FA01CB0119A2223055
:1044200008F42AE08E010F5D1F4F422E512C612CA3
:10443000712CBF01A30192010E941B37F901CA012F
:10444000015011096A3014F4605D01C0695CD80143
:104450006C93232B242B252B61F7B801C7010E94F5
:10446000E421A1960FB6F894DEBF0FBECDBFDF9159
:10447000CF911F910F91FF90EF907F906F905F9081
:104480004F9008954F925F926F927F928F929F927A
:10449000AF92BF92CF92DF92EF92FF92CF93DF93D2
:1044A000EC016A017B01B22E9A01AB01C701B60192
:1044B0000E94E236882319F06FE372E027C02601DC
:1044C0003701E89477F82FEF3FEF4FE75FE7C3013D
:1044D000B2010E94E23681110DC02FEF3FEF4FE78E
:1044E0005FE7C301B2010E943D3418161CF463E477
:1044F00072E00CC02FEF3FEF4FE75FE4C701B6015A
:104500000E94DD3618169CF467E472E0CE01DF915C
:10451000CF91FF90EF90DF90CF90BF90AF909F90A2
:104520008F907F906F905F904F900C94E4212FEFCD
:104530003FEF4FE75FECC701B6010E943D3487FDB6
:10454000E3CF20E030E0A901C701B6010E943D346D
:1045500087FF0AC06DE2CE010E94B9214C01F7FA33
:10456000F094F7F8F09402C0812C912CA12C60E01B
:1045700070E080E09FE3AB1441F020E030E040E2E7
:1045800051E40E943536A394F6CF9B01AC01C701DC
:10459000B6010E94C9352B013C010E94AE366B0169
:1045A0007C010E9442349B01AC01C301B2010E9414
:1045B000C8352B013C012AE0B701A601CE010E94BB
:1045C000F9217C01E80CF91CBB2031F06EE2CE0130
:1045D0000E94B921E80EF91EDB2CDD2029F120E034
:1045E00030E040E251E4C301B2010E94A3342B0148
:1045F0003C010E94AE364B01A12CB12C2AE0B50142
:10460000A401CE010E94F921E80EF91EC501B401F2
:104610000E9442349B01AC01C301B2010E94C83523
:104620002B013C01DA94D9CFC701DF91CF91FF90E4
:10463000EF90DF90CF90BF90AF909F908F907F9042
:104640006F905F904F9008950C94E4211F920F9209
:104650000FB60F9211242F933F934F935F936F9355
:104660007F938F939F93AF93BF93EF93FF9382ECCE
:1046700093E00E94B01EFF91EF91BF91AF919F9187
:104680008F917F916F915F914F913F912F910F90FB
:104690000FBE0F901F9018951F920F920FB60F929A
:1046A00011242F938F939F93EF93FF93E091D20365
:1046B000F091D3038081E091D803F091D90382FD7A
:1046C00012C090818091DB038F5F8F732091DC0398
:1046D000821751F0E091DB03F0E0EE53FC4F958F31
:1046E0008093DB0301C08081FF91EF919F918F91B7
:1046F0002F910F900FBE0F901F9018951F920F9241
:104700000FB60F9211242F933F934F935F936F93A4
:104710007F938F939F93AF93BF93EF93FF93E0911A
:104720005002F0915102309709F451C0968DA68540
:10473000B785858591FF04C09C91892329F447C0E2
:104740009C91892309F043C0A389B4899C918589F0
:10475000809589238C93868997890197F1F7608DDD
:10476000718DA685B785558538E020E0CB0101978E
:10477000F1F7822F90E095958795282F4C9145234E
:1047800009F02068315091F7868D81FD2095809148
:104790004F0290E001968F73992730914E0238179F
:1047A00049F0A0914F02B0E0A758BC4F2C938093E2
:1047B0004F0203C0868D8160868F828D938D019715
:1047C000F1F7A389B4899C918589892B8C93FF91FA
:1047D000EF91BF91AF919F918F917F916F915F9179
:1047E0004F913F912F910F900FBE0F901F901895F2
:1047F000E0915002F0915102E817F90769F4A3899A
:10480000B4899C918589809589238C93109251025B
:104810001092500281E0089580E008956BE472E008
:1048200082EC93E00C94E421ECE6F5E0119285E053
:10483000EC37F807D9F78BE280936C05E0916605B9
:10484000F091670560817181828193812AE04DE654
:1048500055E00E948B31E0916805F0916905608117
:104860007181828193812AE040E755E00C948B317D
:1048700080917C0590917D05A0917E05B0917F058A
:10488000892B8A2B8B2B69F58091C103823048F1EB
:1048900064E774E082EC93E00E94C0210E940E2441
:1048A00086E580930C010E94142460E774E081EC9B
:1048B00095E00E94C0216CE675E081EC95E00E94D5
:1048C00024236CE674E081EC95E00E94C0210E94F4
:1048D000032560937C0570937D0580937E059093FE
:1048E0007F050895CF93DF93CDB7DEB728970FB636
:1048F000F894DEBF0FBECDBF1D8290E49E8324E1FD
:104900002F8324E5288719829A8390E19B8390E581
:104910009C8390914A05691710F06FEF690F4091E1
:104920004B05262F30E0FE01E20FF31F403121F44A
:10493000943011F4918101C09581682F690F6068EE
:1049400083E495E028960FB6F894DEBF0FBECDBF86
:10495000DF91CF910C94A805FF920F931F93CF93F3
:10496000DF93C0918605D0918705209719F48FEFCA
:104970009FEF1EC0682FE0918205F0918305EC0F38
:10498000FD1FF08010820091820510918305062E94
:10499000000C770BC8010E946E39C00FD11FF8823E
:1049A000009729F32091820530918305821B930B98
:1049B000DF91CF911F910F91FF9008953FB7F89429
:1049C0008091F3059091F405A091F505B091F6055D
:1049D00026B5A89B05C02F3F19F00196A11DB11D5A
:1049E0003FBFBA2FA92F982F8827820F911DA11D95
:1049F000B11DBC01CD0142E0660F771F881F991FD2
:104A00004A95D1F708952FB7F8946091EF0570910A
:104A1000F0058091F1059091F2052FBF08951F9246
:104A20000F920FB60F9211242F933F938F939F9362
:104A3000AF93BF938091EF059091F005A091F105A0
:104A4000B091F2053091EE0523E0230F2D3720F4CD
:104A50000196A11DB11D05C026E8230F0296A11DD8
:104A6000B11D2093EE058093EF059093F005A09380
:104A7000F105B093F2058091F3059091F405A091B2
:104A8000F505B091F6050196A11DB11D8093F305C2
:104A90009093F405A093F505B093F605BF91AF91FF
:104AA0009F918F913F912F910F900FBE0F901F906C
:104AB0001895CF93DF93CDB7DEB7A7970FB6F894CD
:104AC000DEBF0FBECDBF789484B5826084BD84B54F
:104AD000816084BD85B5826085BD85B5816085BDF9
:104AE00080916E00816080936E00109281008091B1
:104AF0008100826080938100809181008160809339
:104B00008100809180008160809380008091B1005D
:104B100084608093B1008091B00081608093B00088
:104B200080917A00846080937A0080917A0082601C
:104B300080937A0080917A00816080937A008091DE
:104B40007A00806880937A001092C10099E288E12F
:104B50000FB6F894A895809360000FBE9093600004
:104B6000A89561E084E00E94C71D0E943410A895BA
:104B700061E08DE00E94C71DE091D203F091D30364
:104B800082E08083E091CE03F091CF031082E09128
:104B9000D003F091D10380E180831092DA03E09199
:104BA000D603F091D70386E08083E091D403F0919F
:104BB000D503808180618083E091D403F091D50397
:104BC000808188608083E091D403F091D503808157
:104BD00080688083E091D403F091D50380818F7D3C
:104BE000808363EA71E082EC93E00E94E4210E94FA
:104BF0000E24E0918E05F0918F051386158614869C
:104C0000DF011B9633961E92AE17BF07E1F7109295
:104C10008D0511E0BE016D5E7F4F80918E059091F4
:104C20008F050E947916882309F451C067E0CE01F0
:104C300043960E9487159A8D8913ECCF8091890540
:104C4000811127C080918E0590918F050E94431697
:104C5000BE016D5E7F4F80918E0590918F050E9401
:104C6000D61540E064EB80918E0590918F050E94EF
:104C7000941580918E0590918F050E940316082F40
:104C800080918E0590918F050E944316002309F4B0
:104C900022C7BE016F5F7F4FCE0143960E94421034
:104CA00000918A05CE0143960E945F18801718F480
:104CB00080918A0504C0CE0143960E945F188093BC
:104CC0008A0580918D058F5F80938D05A3CF0E940B
:104CD0008F110E949B1060937802709379028093E9
:104CE0007A0290937B02A8958FE594E00E94F413DA
:104CF0001092DC051092DB051092DA051092D905AE
:104D00001092D8051092D7058DE991E09093DE05B9
:104D10008093DD059091CD05963108F057C02DEBBD
:104D200030E03093D8052093D7052BE931E030935C
:104D3000DA052093D9052CE231E03093DC0520938D
:104D4000DB0520916800983050F031E09E3008F487
:104D500030E081E001C0880F3A95EAF701C084E0B5
:104D6000822B80936800983038F09E3040F0963166
:104D700048F020E030E008C02DE630E005C02BE62A
:104D800030E002C02CE630E03093D5052093D40506
:104D9000983030F481E001C0880F9A95EAF70EC090
:104DA000292F30E09E3018F42850310902C02E50CF
:104DB000310981E001C0880F2A95EAF78093D60572
:104DC0008091DD059091DE050197F1F78091DB057B
:104DD0009091DC05892B21F1809150029091510234
:104DE00025E0813C9207E1F0009711F00E94F82342
:104DF0008091DF058E7F8093DF0510924F02109225
:104E00004E0281EC95E09093510280935002E09124
:104E1000D405F091D50590818091D605892B8083AA
:104E20006DE081E00E94C71D6FEF70E082E895E0C1
:104E30000E94962085E191E09093210580932005C2
:104E40008FE295E00E94F41340913C0550E06091A0
:104E50003B0570E08FE295E00E94A9138FE295E098
:104E60000E94C81190933E0580933D0580913C05BA
:104E7000823088F08FE295E00E94C81120E030E097
:104E8000382F80913D0590913E05822B932B909376
:104E90003E0580933D0520E042E060E183E495E03B
:104EA0000E94BA0660E080E00E94722463EA71E02A
:104EB00083E495E00E94242361E080E00E94722454
:104EC00066E771E083E495E00E94C021ABE3CA2E5F
:104ED000D12CE12CF12C61E08AE00E947224860141
:104EE0008AE0C816D104E104F10428F460E383E405
:104EF00095E00E94B921B701A60183E495E00E94E4
:104F0000070FEDE2CE16D104E104F10441F567E6A6
:104F100071E081EC95E00E94C0216EEA71E0CE0163
:104F200043960E940F2160E875E0CE0101960E9431
:104F30004815BE016D5E7F4FCE0101960E9437205D
:104F40008C01CE0101960E94F020CE0143960E9472
:104F5000F0200F3F1F4F49F462E671E0DACF0832CC
:104F6000110519F40E94341006C068EE73E080E069
:104F700090E00E94031EA89521E0C21AD108E10822
:104F8000F1088FEFC816D806E806F80609F0A3CF97
:104F90000E945A0C10926E0280E090E00E946135EF
:104FA00081112BC044E06DEB73E084E690E00E9439
:104FB0000E1744E069EB73E088E690E00E940E175C
:104FC00041E061EC73E08CED90E00E940E1742E04E
:104FD00065E271E088ED90E00E940E1744E060E623
:104FE00075E088EC90E00E940E1744E06CE575E0F7
:104FF00080ED90E00E940E1702C00E940F0840E072
:1050000061E381EB91E00E94A0080E94FE0688EB1C
:1050100095E090939D0480939C048EEF96E090938E
:105020009F0480939E0481E0809377046CE3E62ED6
:10503000FF24F3948E010F5F1F4F72E0872E912C97
:10504000CC24C394D12CFAE0AF2EB12CA8950E94A9
:10505000032540906F025090700260907102709032
:105060007202DC01CB0184199509A609B709893EB2
:105070009340A105B10508F4EBC10E94032560939C
:105080006F0270937002809371029093720280910C
:105090006E028F5F80936E02A8956E2D0E94E73698
:1050A000911105C080917904882309F417C5A8954A
:1050B00080916E026E2D0E94E7369111ACC18091F5
:1050C000C103882309F4A7C1A89560906405709076
:1050D00065056AEA71E081EC95E00E94C021B301A8
:1050E000C8010E944815F2E06F0E711CB801C3019F
:1050F0000E948A20C8010E94F02062EC71E0CE017B
:1051000043960E940F21BE016D5E7F4FC3010E9436
:1051100037202C0162EC71E0CE0181960E940F21B4
:10512000BE016F5D7F4FC3010E9437209201275F50
:105130003F4FAC01495F5F4FB301C8010E9424217A
:10514000C8010E942C20C8016FA30E94F020CE014C
:1051500081960E94F020CE0143960E94F0206FA11C
:10516000611159C1A89510927C0510927D0510928D
:105170007E0510927F0520E220930C01609064056B
:10518000709065056AE871E081EC95E00E94C021AD
:105190006AEC71E0CE0143960E940F21B301C80171
:1051A0000E944815BE016D5E7F4FC8010E943720E6
:1051B0002C01C8010E94F020CE0143960E94F020ED
:1051C00045204094C9F561E871E081EC95E00E94CA
:1051D000C0212AE041E050E060E070E081EC95E021
:1051E0000E94F92166E372E081EC95E00E9424239D
:1051F000B301C8010E944815E2E06E0E711CB801AF
:10520000C3010E948A20C8010E94F0206DEC71E069
:10521000C8010E940F21B801C3010E9437202C0150
:10522000C8010E94F0204520409431F0B301CE0126
:105230004B960E94F52006C06DE472E0CE014B96BD
:105240000E940F21A8954F8D58A16B8D7C8D82EC0B
:1052500093E00E943E1E0E940E248F8D98A1892B00
:1052600009F4D5C0EB8DFC8D8081882309F4CFC073
:10527000609064057090650565E971E081EC95E0EA
:105280000E94C021B301C8010E944815B801C301A2
:1052900002960E948A20C8010E94F0206EEA71E006
:1052A000C8010E940F21C8010E94F0208091C10313
:1052B000882309F4ACC063ED71E0C8010E940F219E
:1052C000B801CE014B960E9437203C01C8010E94D4
:1052D000F020E0916A05F0916B05808191811C8A34
:1052E0001B8A1E8A1D8A188E1F8A4AE0B8010E94F6
:1052F0005C31F80101900020E9F73197AF01401BC4
:10530000510BB801CE0143960E94CF2093012A5F32
:105310003F4FA3014E5F5F4FBE01655E7F4FC801E7
:105320000E9424212D813E818F89988D281739076D
:1053300019F589819A816B897C89009719F061152B
:105340007105A9F46115710551F02115310539F088
:10535000FB01808190E09195819591090AC00097A9
:1053600069F0232B59F0FC01808190E002C00E947B
:105370004F3921E0892B19F020E001C021E0C8015C
:105380002FA30E94F020CE0143960E94F0202FA16F
:105390002223E9F166ED71E0C8010E940F21B801F6
:1053A000CE014B960E9437203C01C8010E94F0209C
:1053B00077FC1CC0F2E06F0E711C8F8D98A16816EF
:1053C000790648F48B8D9C8D009729F0FC01E60D41
:1053D000F71D808101C080E080538093C10341E0CC
:1053E00061EC73E08CED90E00E94351769ED71E09F
:1053F000C8010E940F21B801CE014B960E943720B0
:105400003C01C8010E94F02077FE0E94390FCE01B6
:105410004B960E94F020A89580916E026AE00E944F
:10542000E73691110CC00E948F110E949B1060936F
:1054300078027093790280937A0290937B02809134
:105440005202882319F01092520202C0F0925202C6
:1054500080917904811108C080916C0290916D0255
:10546000892B11F40E94FE0680EC94E00E94CB0987
:10547000833259F410926D0210926C0210926B02FA
:1054800010926A02F092770427C0909179049923D0
:1054900021F09091770491111FC0873309F021C347
:1054A00083E495E00E94B00510927704D0926D02DB
:1054B000C0926C0210926B0210926A021092540217
:1054C00010925502109256021092570210925302F7
:1054D00083E495E00E94EF058091620281110CC087
:1054E0000E94032560935E0270935F0280936002C6
:1054F00090936102F092620280917A04882371F0A5
:1055000080917704882351F010927A0460919B0473
:1055100080917D0490917E040E949B188091730479
:10552000811152C0809174048E3008F08E508770C3
:10553000806480937C0080917A00806480937A00FC
:1055400080917A0086FDFCCF2091780080917900CF
:1055500030E0382B60917504709176048091580288
:1055600090915902821B930B97FF03C091958195EF
:105570009109681779072CF4309359022093580247
:1055800020C0E1E7F4E080E090E046895789DA0145
:10559000A61BB70BA217B3077CF4460F571F24179F
:1055A000350754F4880F991F880F991FFC01E7579E
:1055B000FB4F6080718013C0019634968530910551
:1055C00021F7612C712C0BC0E0917104F0917204F1
:1055D0000190F081E02D81E794E009953C018091F4
:1055E0005D0290E068167906B9F060925D02109253
:1055F0005C020E94032560935E0270935F028093B9
:1056000060029093610210925B0210925A02D09253
:10561000B104C092B004F5C00E94032520915E023F
:1056200030915F024091600250916102DC01CB0138
:10563000821B930BA40BB50B89379105A105B1050E
:1056400008F4DFC00E94032560935E0270935F023E
:1056500080936002909361026114710421F0809143
:10566000770481110BC010925B0210925A02D09203
:10567000B104C092B00410925C02C3C0F5E06F1692
:10568000710411F4F092790480917904882309F46B
:10569000B8C080915C0290E068167906C1F48091F0
:1056A0005A0290915B02019690935B0280935A029A
:1056B000B5010E94F336892B81F08091B00490915E
:1056C000B10402969093B1048093B00406C0609236
:1056D0005C02D092B104C092B004462D20917804AF
:1056E00085E06816710419F06A946728B1F4809116
:1056F0007B0490917C04222321F063E00E94F9193D
:1057000009C060E0009721F480917F0490918004AB
:105710000E94FE181092BD0474C0433031F0443032
:1057200031F0423031F464E005C061E003C062E072
:1057300001C060E0222361F08091BD048F5F8093FF
:10574000BD0480917B0490917C040E94F91959C09A
:105750008FEF860F823018F0643009F052C020912C
:105760007D0430917E04F9017196E491E15064303A
:1057700081F510927C0410927B04809185049091B5
:105780008604009781F480918304909184040097AB
:1057900069F48091810490918204009709F4B5C264
:1057A00020E030E005C022E030E002C021E030E03F
:1057B000220F331FF901EF57FB4F11821082909394
:1057C0007E0480937D0410929B0461E00E94FE1889
:1057D00018C090919B04613011F061E001C06FEF3F
:1057E000690FE61730F481E06F3F09F080E0682F21
:1057F00061956F3F09F46E2F60939B04C9010E946D
:105800009B18A89580917C0590917D05A0917E05BF
:10581000B0917F05892B8A2B8B2BB1F00E94032539
:1058200040907C0550907D0560907E0570907F05CE
:10583000DC01CB0184199509A609B709813E93497A
:10584000A440B10508F076C2A895772473942091FE
:10585000BD033091BE034091BF035091C0036091DE
:1058600078027091790280917A0290917B020E9475
:10587000DD3618160CF0712C672D8EEA95E00E942B
:10588000CD0A882331F041E061E38CED91E00E9484
:10589000A00820E030E040E05FE36091BD0370913C
:1058A000BE038091BF039091C0030E94C8359B0145
:1058B000AC01609178027091790280917A029091A6
:1058C0007B020E943D34682F661F6627661F8EEAA2
:1058D00095E00E94810A882331F041E060E38CED7D
:1058E00091E00E94A0082091B9033091BA03409141
:1058F000BB035091BC036091780270917902809152
:105900007A0290917B020E943D34682F661F6627C1
:10591000661F8CE995E00E94CD0A882331F041E0B2
:1059200061E38DEE91E00E94A00820E030E040E0CD
:105930005FE36091B9037091BA038091BB039091CA
:10594000BC030E94C9359B01AC017724739460911C
:1059500078027091790280917A0290917B020E9484
:10596000DD3618160CF0712C672D8CE995E00E943D
:10597000810A882331F041E060E38DEE91E00E94DE
:10598000A00880EC94E00E946E09882321F0109218
:10599000BF051092AD0582EC93E00E949A1E181686
:1059A00019060CF095C062EC73E0CE0143960E949C
:1059B000792169ED71E0C8010E940F21B801CE0183
:1059C00043960E9437203C01C8010E94F0206720C6
:1059D000609409F479C00E940E246EEF71E082ECAD
:1059E00093E00E94242340917802509179026091C3
:1059F0007A0270917B0222E082EC93E00E944222C4
:105A00000E940E2461E072E082EC93E00E94242365
:105A10004091C10350E060E070E02AE082EC93E046
:105A20000E94F92160E282EC93E00E94B9216BE2CE
:105A300082EC93E00E94B92140916005509161058C
:105A400060916205709163052AE082EC93E00E9408
:105A5000F92140915C0550915D0560915E05709162
:105A60005F052AE082EC93E00E94F92160E282EC7B
:105A700093E00E94B921409125015091260160E0F8
:105A800070E02AE082EC93E00E94F9210E940E244B
:105A90000E940E240E940E24612C712CB801C301B7
:105AA0000E945108B80182EC93E00E94E4210E9418
:105AB0000E248FEF681A780AE0E26E16710471F70F
:105AC0000E940E240E940E24CE0143960E94F020D4
:105AD0000E943A1FBBCA10938905DBC80E945A0C6A
